{
  "_format": "hh-sol-artifact-1",
  "contractName": "POLKINGRANK",
  "sourceName": "contracts/POLKING.sol",
  "abi": [
    {
      "inputs": [],
      "stateMutability": "nonpayable",
      "type": "constructor"
    },
    {
      "inputs": [
        {
          "internalType": "address",
          "name": "sender",
          "type": "address"
        },
        {
          "internalType": "uint256",
          "name": "tokenId",
          "type": "uint256"
        },
        {
          "internalType": "address",
          "name": "owner",
          "type": "address"
        }
      ],
      "name": "ERC721IncorrectOwner",
      "type": "error"
    },
    {
      "inputs": [
        {
          "internalType": "address",
          "name": "operator",
          "type": "address"
        },
        {
          "internalType": "uint256",
          "name": "tokenId",
          "type": "uint256"
        }
      ],
      "name": "ERC721InsufficientApproval",
      "type": "error"
    },
    {
      "inputs": [
        {
          "internalType": "address",
          "name": "approver",
          "type": "address"
        }
      ],
      "name": "ERC721InvalidApprover",
      "type": "error"
    },
    {
      "inputs": [
        {
          "internalType": "address",
          "name": "operator",
          "type": "address"
        }
      ],
      "name": "ERC721InvalidOperator",
      "type": "error"
    },
    {
      "inputs": [
        {
          "internalType": "address",
          "name": "owner",
          "type": "address"
        }
      ],
      "name": "ERC721InvalidOwner",
      "type": "error"
    },
    {
      "inputs": [
        {
          "internalType": "address",
          "name": "receiver",
          "type": "address"
        }
      ],
      "name": "ERC721InvalidReceiver",
      "type": "error"
    },
    {
      "inputs": [
        {
          "internalType": "address",
          "name": "sender",
          "type": "address"
        }
      ],
      "name": "ERC721InvalidSender",
      "type": "error"
    },
    {
      "inputs": [
        {
          "internalType": "uint256",
          "name": "tokenId",
          "type": "uint256"
        }
      ],
      "name": "ERC721NonexistentToken",
      "type": "error"
    },
    {
      "inputs": [
        {
          "internalType": "address",
          "name": "owner",
          "type": "address"
        }
      ],
      "name": "OwnableInvalidOwner",
      "type": "error"
    },
    {
      "inputs": [
        {
          "internalType": "address",
          "name": "account",
          "type": "address"
        }
      ],
      "name": "OwnableUnauthorizedAccount",
      "type": "error"
    },
    {
      "anonymous": false,
      "inputs": [
        {
          "indexed": true,
          "internalType": "address",
          "name": "owner",
          "type": "address"
        },
        {
          "indexed": true,
          "internalType": "address",
          "name": "approved",
          "type": "address"
        },
        {
          "indexed": true,
          "internalType": "uint256",
          "name": "tokenId",
          "type": "uint256"
        }
      ],
      "name": "Approval",
      "type": "event"
    },
    {
      "anonymous": false,
      "inputs": [
        {
          "indexed": true,
          "internalType": "address",
          "name": "owner",
          "type": "address"
        },
        {
          "indexed": true,
          "internalType": "address",
          "name": "operator",
          "type": "address"
        },
        {
          "indexed": false,
          "internalType": "bool",
          "name": "approved",
          "type": "bool"
        }
      ],
      "name": "ApprovalForAll",
      "type": "event"
    },
    {
      "anonymous": false,
      "inputs": [
        {
          "indexed": true,
          "internalType": "address",
          "name": "previousOwner",
          "type": "address"
        },
        {
          "indexed": true,
          "internalType": "address",
          "name": "newOwner",
          "type": "address"
        }
      ],
      "name": "OwnershipTransferred",
      "type": "event"
    },
    {
      "anonymous": false,
      "inputs": [
        {
          "indexed": true,
          "internalType": "address",
          "name": "from",
          "type": "address"
        },
        {
          "indexed": true,
          "internalType": "address",
          "name": "to",
          "type": "address"
        },
        {
          "indexed": true,
          "internalType": "uint256",
          "name": "tokenId",
          "type": "uint256"
        }
      ],
      "name": "Transfer",
      "type": "event"
    },
    {
      "inputs": [],
      "name": "DEV1",
      "outputs": [
        {
          "internalType": "address",
          "name": "",
          "type": "address"
        }
      ],
      "stateMutability": "view",
      "type": "function"
    },
    {
      "inputs": [
        {
          "internalType": "address",
          "name": "",
          "type": "address"
        },
        {
          "internalType": "uint256",
          "name": "",
          "type": "uint256"
        }
      ],
      "name": "approve",
      "outputs": [],
      "stateMutability": "pure",
      "type": "function"
    },
    {
      "inputs": [
        {
          "internalType": "address",
          "name": "owner",
          "type": "address"
        }
      ],
      "name": "balanceOf",
      "outputs": [
        {
          "internalType": "uint256",
          "name": "",
          "type": "uint256"
        }
      ],
      "stateMutability": "view",
      "type": "function"
    },
    {
      "inputs": [
        {
          "internalType": "uint256",
          "name": "tokenId",
          "type": "uint256"
        }
      ],
      "name": "burn",
      "outputs": [],
      "stateMutability": "nonpayable",
      "type": "function"
    },
    {
      "inputs": [
        {
          "internalType": "uint256",
          "name": "",
          "type": "uint256"
        }
      ],
      "name": "getApproved",
      "outputs": [
        {
          "internalType": "address",
          "name": "",
          "type": "address"
        }
      ],
      "stateMutability": "pure",
      "type": "function"
    },
    {
      "inputs": [
        {
          "internalType": "address",
          "name": "account",
          "type": "address"
        }
      ],
      "name": "grantMinterRole",
      "outputs": [],
      "stateMutability": "nonpayable",
      "type": "function"
    },
    {
      "inputs": [
        {
          "internalType": "address",
          "name": "",
          "type": "address"
        },
        {
          "internalType": "address",
          "name": "",
          "type": "address"
        }
      ],
      "name": "isApprovedForAll",
      "outputs": [
        {
          "internalType": "bool",
          "name": "",
          "type": "bool"
        }
      ],
      "stateMutability": "pure",
      "type": "function"
    },
    {
      "inputs": [
        {
          "internalType": "address",
          "name": "account",
          "type": "address"
        }
      ],
      "name": "isMinter",
      "outputs": [
        {
          "internalType": "bool",
          "name": "",
          "type": "bool"
        }
      ],
      "stateMutability": "view",
      "type": "function"
    },
    {
      "inputs": [],
      "name": "name",
      "outputs": [
        {
          "internalType": "string",
          "name": "",
          "type": "string"
        }
      ],
      "stateMutability": "view",
      "type": "function"
    },
    {
      "inputs": [],
      "name": "owner",
      "outputs": [
        {
          "internalType": "address",
          "name": "",
          "type": "address"
        }
      ],
      "stateMutability": "view",
      "type": "function"
    },
    {
      "inputs": [
        {
          "internalType": "uint256",
          "name": "tokenId",
          "type": "uint256"
        }
      ],
      "name": "ownerOf",
      "outputs": [
        {
          "internalType": "address",
          "name": "",
          "type": "address"
        }
      ],
      "stateMutability": "view",
      "type": "function"
    },
    {
      "inputs": [],
      "name": "rankPOLKING",
      "outputs": [
        {
          "internalType": "contract IPOLKINGRANK",
          "name": "",
          "type": "address"
        }
      ],
      "stateMutability": "view",
      "type": "function"
    },
    {
      "inputs": [],
      "name": "renounceOwnership",
      "outputs": [],
      "stateMutability": "nonpayable",
      "type": "function"
    },
    {
      "inputs": [
        {
          "internalType": "address",
          "name": "account",
          "type": "address"
        }
      ],
      "name": "revokeMinterRole",
      "outputs": [],
      "stateMutability": "nonpayable",
      "type": "function"
    },
    {
      "inputs": [
        {
          "internalType": "address",
          "name": "to",
          "type": "address"
        },
        {
          "internalType": "string",
          "name": "uri",
          "type": "string"
        }
      ],
      "name": "safeMint",
      "outputs": [
        {
          "internalType": "uint256",
          "name": "",
          "type": "uint256"
        }
      ],
      "stateMutability": "nonpayable",
      "type": "function"
    },
    {
      "inputs": [
        {
          "internalType": "address",
          "name": "from",
          "type": "address"
        },
        {
          "internalType": "address",
          "name": "to",
          "type": "address"
        },
        {
          "internalType": "uint256",
          "name": "tokenId",
          "type": "uint256"
        }
      ],
      "name": "safeTransferFrom",
      "outputs": [],
      "stateMutability": "nonpayable",
      "type": "function"
    },
    {
      "inputs": [
        {
          "internalType": "address",
          "name": "from",
          "type": "address"
        },
        {
          "internalType": "address",
          "name": "to",
          "type": "address"
        },
        {
          "internalType": "uint256",
          "name": "tokenId",
          "type": "uint256"
        },
        {
          "internalType": "bytes",
          "name": "data",
          "type": "bytes"
        }
      ],
      "name": "safeTransferFrom",
      "outputs": [],
      "stateMutability": "nonpayable",
      "type": "function"
    },
    {
      "inputs": [
        {
          "internalType": "address",
          "name": "",
          "type": "address"
        },
        {
          "internalType": "bool",
          "name": "",
          "type": "bool"
        }
      ],
      "name": "setApprovalForAll",
      "outputs": [],
      "stateMutability": "pure",
      "type": "function"
    },
    {
      "inputs": [
        {
          "internalType": "bytes4",
          "name": "interfaceId",
          "type": "bytes4"
        }
      ],
      "name": "supportsInterface",
      "outputs": [
        {
          "internalType": "bool",
          "name": "",
          "type": "bool"
        }
      ],
      "stateMutability": "view",
      "type": "function"
    },
    {
      "inputs": [],
      "name": "symbol",
      "outputs": [
        {
          "internalType": "string",
          "name": "",
          "type": "string"
        }
      ],
      "stateMutability": "view",
      "type": "function"
    },
    {
      "inputs": [
        {
          "internalType": "uint256",
          "name": "tokenId",
          "type": "uint256"
        }
      ],
      "name": "tokenURI",
      "outputs": [
        {
          "internalType": "string",
          "name": "",
          "type": "string"
        }
      ],
      "stateMutability": "view",
      "type": "function"
    },
    {
      "inputs": [
        {
          "internalType": "address",
          "name": "from",
          "type": "address"
        },
        {
          "internalType": "address",
          "name": "to",
          "type": "address"
        },
        {
          "internalType": "uint256",
          "name": "tokenId",
          "type": "uint256"
        }
      ],
      "name": "transferFrom",
      "outputs": [],
      "stateMutability": "nonpayable",
      "type": "function"
    },
    {
      "inputs": [
        {
          "internalType": "address",
          "name": "newOwner",
          "type": "address"
        }
      ],
      "name": "transferOwnership",
      "outputs": [],
      "stateMutability": "nonpayable",
      "type": "function"
    }
  ],
  "bytecode": "0x608034620003cd576040906001600160401b039080830182811182821017620003b7578352600b81526020926a504f4c4b494e4752414e4b60a81b8483015280519281840184811082821117620003b75782526004908185526352414e4b60e01b868601528351818111620003a2576000958654916001968784811c9416801562000397575b8a85101462000384578190601f9485811162000331575b508a90858311600114620002cc578a92620002c0575b5050600019600383901b1c191690871b1787555b8051928311620002ad5785548681811c91168015620002a2575b898210146200028f57908183859493116200023a575b5088918311600114620001d6578792620001ca575b5050600019600383901b1c191690841b1783555b3015620001b5575060068054306001600160a01b03198216811790925582519560079290916001600160a01b03167f8be0079c531659141344cd1fd0a4f28419497f9722a3daafe3b4186f6b6457e08780a383600955338552528083209260ff1993838582541617905573d995bff20de2e700d0993bf5f9f56228686d3a77815220918254161790556113389081620003d38239f35b836024925191631e4fbdf760e01b8352820152fd5b0151905038806200010b565b8688528888208794509190601f198416895b8b82821062000223575050841162000209575b505050811b0183556200011f565b015160001960f88460031b161c19169055388080620001fb565b8385015186558a97909501949384019301620001e8565b909192508688528888208380860160051c8201928b871062000285575b9186958a929594930160051c01915b82811062000276575050620000f6565b8a815586955089910162000266565b9250819262000257565b634e487b7160e01b885260228552602488fd5b90607f1690620000e0565b634e487b7160e01b875260418452602487fd5b015190503880620000b2565b8a80528b8b208a94509190601f1984168c8e5b828210620003195750508411620002ff575b505050811b018755620000c6565b015160001960f88460031b161c19169055388080620002f1565b8385015186558d979095019493840193018e620002df565b9091508980528a8a208580850160051c8201928d86106200037a575b918b91869594930160051c01915b8281106200036b5750506200009c565b8c81558594508b91016200035b565b925081926200034d565b634e487b7160e01b895260228652602489fd5b93607f169362000085565b604183634e487b7160e01b6000525260246000fd5b634e487b7160e01b600052604160045260246000fd5b600080fdfe608080604052600436101561001357600080fd5b60003560e01c90816301ffc9a714610d095750806306fdde0314610c7a578063081812fc14610c63578063095ea7b314610c4457806323b872dd14610c2d5780633dd1eb6114610bce57806342842e0e14610ba057806342966c6814610a315780636352211e14610a0157806369e2f0fb146109ad57806370a0823114610954578063715018a6146108f75780638da5cb5b146108ce57806395d89b411461081f578063a22cb465146107f5578063a9b2f94f146107c6578063aa271e1a14610787578063b88d4fde1461071a578063c87b56dd14610637578063ce998e611461060e578063d204c45e146101d7578063e985e9c5146101a95763f2fde38b1461011c57600080fd5b346101a45760203660031901126101a457610135610db4565b61013d610ea3565b6001600160a01b0390811690811561018b57600680546001600160a01b031981168417909155167f8be0079c531659141344cd1fd0a4f28419497f9722a3daafe3b4186f6b6457e0600080a3005b604051631e4fbdf760e01b815260006004820152602490fd5b600080fd5b346101a45760403660031901126101a4576101c2610db4565b506101cb610dca565b50602060405160008152f35b346101a45760403660031901126101a4576101f0610db4565b6001600160401b03906024358281116101a457366023820112156101a457610222903690602481600401359101610e6c565b9033600052600760205261023d60ff60406000205416611227565b6009549060001982146105f857600182016009556040519061025e82610e15565b600082526001600160a01b0391818316156105df5783600052600260205282604060002054161580156105d7575b156105a457836000526002602052826040600020541680610571575b8284166000818152600360209081526040808320805460010190558883526002909152812080546001600160a01b0319168317905586919083906000805160206112c38339815191529080a461055857813b610426575b50505080600052600860205260406000208251938411610410576020936103268254610ecf565b601f81116103d5575b508493601f8211600114610372579381929394600092610367575b50508160011b916000199060031b1c19161790555b604051908152f35b01519050858061034a565b601f1982169483600052866000209160005b8781106103be5750836001959697106103a5575b505050811b01905561035f565b015160001960f88460031b161c19169055858080610398565b919288600181928685015181550194019201610384565b610400908360005286600020601f840160051c810191888510610406575b601f0160051c019061126c565b8561032f565b90915081906103f3565b634e487b7160e01b600052604160045260246000fd5b60409593919492955160208180610466630a85bd0160e11b9586835233600484015260006024840152876044840152608060648401526084830190610d74565b038160008b8b165af160009181610513575b506104da5786863d156104d2573d9161049083610e51565b9261049e6040519485610e30565b83523d6000602085013e5b825192836104cb57604051633250574960e11b81528284166004820152602490fd5b8390602001fd5b6060916104a9565b63ffffffff60e0979395979694961b16036104f95750508380806102ff565b604051633250574960e11b81529116600482015260249150fd5b9091506020813d602011610550575b8161052f60209383610e30565b810103126101a457516001600160e01b0319811681036101a4579088610478565b3d9150610522565b6040516339e3563760e11b815260006004820152602490fd5b600460209081526040600081812080546001600160a01b03191690558381526003909252902080546000190190556102a8565b60405162461bcd60e51b815260206004820152601d60248201526000805160206112e38339815191526044820152606490fd5b50600061028c565b604051633250574960e11b815260006004820152602490fd5b634e487b7160e01b600052601160045260246000fd5b346101a45760003660031901126101a457600a546040516001600160a01b039091168152602090f35b346101a4576020806003193601126101a457600435610655816110b5565b506000526008815260406000209060405191826000825461067581610ecf565b938484526001918683821691826000146106f85750506001146106b9575b50506106a192500383610e30565b6106b5604051928284938452830190610d74565b0390f35b85925060005281600020906000915b8583106106e05750506106a193508201018580610693565b805483890185015287945086939092019181016106c8565b92509350506106a194915060ff191682840152151560051b8201018580610693565b346101a45760803660031901126101a457610733610db4565b61073b610dca565b90604435606435926001600160401b0384116101a457366023850112156101a457610773610785943690602481600401359101610e6c565b9261077f838383610f09565b336110d8565b005b346101a45760203660031901126101a4576001600160a01b036107a8610db4565b166000526007602052602060ff604060002054166040519015158152f35b346101a45760003660031901126101a457602060405173d995bff20de2e700d0993bf5f9f56228686d3a778152f35b346101a45760403660031901126101a45761080e610db4565b506024358015151461128357600080fd5b346101a45760003660031901126101a457604051600060018281549261084484610ecf565b928383526020948582821691826000146108ae57505060011461086f575b506106a192500383610e30565b8491508060005281600020906000915b8583106108965750506106a1935082010185610862565b8054838901850152879450869390920191810161087f565b60ff1916858201526106a195151560051b85010192508791506108629050565b346101a45760003660031901126101a4576006546040516001600160a01b039091168152602090f35b346101a45760003660031901126101a457610910610ea3565b600680546001600160a01b031981169091556000906001600160a01b03167f8be0079c531659141344cd1fd0a4f28419497f9722a3daafe3b4186f6b6457e08280a3005b346101a45760203660031901126101a4576001600160a01b03610975610db4565b1680156109945760005260036020526020604060002054604051908152f35b6040516322718ad960e21b815260006004820152602490fd5b346101a45760203660031901126101a4576109c6610db4565b3360005260076020526109e060ff60406000205416611227565b6001600160a01b03166000908152600760205260409020805460ff19169055005b346101a45760203660031901126101a4576020610a1f6004356110b5565b6040516001600160a01b039091168152f35b346101a4576020806003193601126101a4576004353360005260078252610a5f60ff60406000205416611227565b60008181526002835260409020546001600160a01b03908116158015610b98575b15610b65578160005260028352604060002054168160008215928315610b39575b828252600286526040822080546001600160a01b03191690556000805160206112c38339815191528280a4610b2157600052600881526040600020610ae68154610ecf565b80610aed57005b600092601f8211600114610b0057505055005b8284528320918391610b1d90601f0160051c84016001850161126c565b5555005b60249060405190637e27328960e01b82526004820152fd5b60048652604080832080546001600160a01b031916905581835260038752822080548319019055610aa1565b60405162461bcd60e51b815260048101849052601d60248201526000805160206112e38339815191526044820152606490fd5b506001610a80565b346101a457610785610bb136610de0565b9060405192610bbf84610e15565b6000845261077f838383610f09565b346101a45760203660031901126101a457610be7610db4565b336000526007602052610c0160ff60406000205416611227565b610c09610ea3565b6001600160a01b03166000908152600760205260409020805460ff19166001179055005b346101a457610785610c3e36610de0565b91610f09565b346101a45760403660031901126101a457610c5d610db4565b50611283565b346101a45760203660031901121561128357600080fd5b346101a45760003660031901126101a457604051600080549082610c9d83610ecf565b918282526020936001908582821691826000146108ae575050600114610cca57506106a192500383610e30565b8491506000805281600020906000915b858310610cf15750506106a1935082010185610862565b80548389018501528794508693909201918101610cda565b346101a45760203660031901126101a4576004359063ffffffff60e01b82168092036101a4576020916380ac58cd60e01b8114908115610d63575b8115610d52575b5015158152f35b6301ffc9a760e01b14905083610d4b565b635b5e139f60e01b81149150610d44565b919082519283825260005b848110610da0575050826000602080949584010152601f8019910116010190565b602081830181015184830182015201610d7f565b600435906001600160a01b03821682036101a457565b602435906001600160a01b03821682036101a457565b60609060031901126101a4576001600160a01b039060043582811681036101a4579160243590811681036101a4579060443590565b602081019081106001600160401b0382111761041057604052565b90601f801991011681019081106001600160401b0382111761041057604052565b6001600160401b03811161041057601f01601f191660200190565b929192610e7882610e51565b91610e866040519384610e30565b8294818452818301116101a4578281602093846000960137010152565b6006546001600160a01b03163303610eb757565b60405163118cdaa760e01b8152336004820152602490fd5b90600182811c92168015610eff575b6020831014610ee957565b634e487b7160e01b600052602260045260246000fd5b91607f1691610ede565b6001600160a01b0391821692909183156105df57600092828452602094600286526040958387872054161580156110ae575b1561107d579084918287526002815284888820541696879133151580610fff575b509060026000805160206112c38339815191529284610fd0575b858352600381528b8320805460010190558683525289812080546001600160a01b0319168517905580a41692838303610faf5750505050565b6064945051926364283d7b60e01b8452600484015260248301526044820152fd5b868352600481528b832080546001600160a01b0319169055848352600381528b83208054600019019055610f76565b91939450915080611054575b1561101b57859291879138610f5c565b878688611038576024915190637e27328960e01b82526004820152fd5b604491519063177e802f60e01b82523360048301526024820152fd5b503387148015611076575b8061100b575060048152338589842054161461100b565b508161105f565b60649087519062461bcd60e51b82526004820152601d60248201526000805160206112e38339815191526044820152fd5b5085610f3b565b6000818152600260205260409020546001600160a01b0316908115610b21575090565b909192833b6110e9575b5050505050565b604051630a85bd0160e11b8082526001600160a01b039384166004830152938316602482015260448101919091526080606482015260209591909316939091908390611139906084830190610d74565b039285816000958187895af18491816111e3575b506111ad575050503d6000146111a5573d61116781610e51565b906111756040519283610e30565b81528091843d92013e5b805192836111a057604051633250574960e11b815260048101849052602490fd5b019050fd5b50606061117f565b919450915063ffffffff60e01b16036111cb575038808080806110e2565b60249060405190633250574960e11b82526004820152fd5b9091508681813d8311611220575b6111fb8183610e30565b8101031261121c57516001600160e01b03198116810361121c57903861114d565b8480fd5b503d6111f1565b1561122e57565b60405162461bcd60e51b815260206004820152601660248201527521b0b63632b91034b9903737ba10309036b4b73a32b960511b6044820152606490fd5b818110611277575050565b6000815560010161126c565b60405162461bcd60e51b8152602060048201526017602482015276536f756c626f756e643a206e6f20617070726f76616c7360481b6044820152606490fdfeddf252ad1be2c89b69c2b068fc378daa952ba7f163c4a11628f55a4df523b3ef536f756c626f756e643a207472616e73666572732064697361626c6564000000a2646970667358221220aacc790a0a1caf287ec9fd5af1e10706fe68c2e626942c21fe424df6f1b329a064736f6c63430008150033",
  "linkReferences": {},
  "deployedLinkReferences": {}
}