{
  "_format": "hh-sol-artifact-1",
  "contractName": "POLKING",
  "sourceName": "contracts/POLKING.sol",
  "abi": [
    {
      "inputs": [
        {
          "internalType": "address payable",
          "name": "_dev1",
          "type": "address"
        },
        {
          "internalType": "address",
          "name": "_rankPOLKING",
          "type": "address"
        }
      ],
      "stateMutability": "nonpayable",
      "type": "constructor"
    },
    {
      "inputs": [
        {
          "internalType": "address",
          "name": "spender",
          "type": "address"
        },
        {
          "internalType": "uint256",
          "name": "allowance",
          "type": "uint256"
        },
        {
          "internalType": "uint256",
          "name": "needed",
          "type": "uint256"
        }
      ],
      "name": "ERC20InsufficientAllowance",
      "type": "error"
    },
    {
      "inputs": [
        {
          "internalType": "address",
          "name": "sender",
          "type": "address"
        },
        {
          "internalType": "uint256",
          "name": "balance",
          "type": "uint256"
        },
        {
          "internalType": "uint256",
          "name": "needed",
          "type": "uint256"
        }
      ],
      "name": "ERC20InsufficientBalance",
      "type": "error"
    },
    {
      "inputs": [
        {
          "internalType": "address",
          "name": "approver",
          "type": "address"
        }
      ],
      "name": "ERC20InvalidApprover",
      "type": "error"
    },
    {
      "inputs": [
        {
          "internalType": "address",
          "name": "receiver",
          "type": "address"
        }
      ],
      "name": "ERC20InvalidReceiver",
      "type": "error"
    },
    {
      "inputs": [
        {
          "internalType": "address",
          "name": "sender",
          "type": "address"
        }
      ],
      "name": "ERC20InvalidSender",
      "type": "error"
    },
    {
      "inputs": [
        {
          "internalType": "address",
          "name": "spender",
          "type": "address"
        }
      ],
      "name": "ERC20InvalidSpender",
      "type": "error"
    },
    {
      "inputs": [
        {
          "internalType": "address",
          "name": "owner",
          "type": "address"
        }
      ],
      "name": "OwnableInvalidOwner",
      "type": "error"
    },
    {
      "inputs": [
        {
          "internalType": "address",
          "name": "account",
          "type": "address"
        }
      ],
      "name": "OwnableUnauthorizedAccount",
      "type": "error"
    },
    {
      "inputs": [],
      "name": "ReentrancyGuardReentrantCall",
      "type": "error"
    },
    {
      "inputs": [
        {
          "internalType": "address",
          "name": "token",
          "type": "address"
        }
      ],
      "name": "SafeERC20FailedOperation",
      "type": "error"
    },
    {
      "anonymous": false,
      "inputs": [
        {
          "indexed": true,
          "internalType": "address",
          "name": "owner",
          "type": "address"
        },
        {
          "indexed": true,
          "internalType": "address",
          "name": "spender",
          "type": "address"
        },
        {
          "indexed": false,
          "internalType": "uint256",
          "name": "value",
          "type": "uint256"
        }
      ],
      "name": "Approval",
      "type": "event"
    },
    {
      "anonymous": false,
      "inputs": [
        {
          "indexed": true,
          "internalType": "address",
          "name": "user",
          "type": "address"
        },
        {
          "indexed": false,
          "internalType": "uint256",
          "name": "maticAmt",
          "type": "uint256"
        },
        {
          "indexed": false,
          "internalType": "uint256",
          "name": "tokenAmt",
          "type": "uint256"
        },
        {
          "indexed": false,
          "internalType": "uint256",
          "name": "totalRewards",
          "type": "uint256"
        },
        {
          "indexed": false,
          "internalType": "uint256",
          "name": "bonus",
          "type": "uint256"
        }
      ],
      "name": "Claimed",
      "type": "event"
    },
    {
      "anonymous": false,
      "inputs": [
        {
          "indexed": true,
          "internalType": "enum POLKING.Rank",
          "name": "rank",
          "type": "uint8"
        },
        {
          "indexed": false,
          "internalType": "uint256",
          "name": "totalAmount",
          "type": "uint256"
        },
        {
          "indexed": false,
          "internalType": "uint256",
          "name": "recipientCount",
          "type": "uint256"
        },
        {
          "indexed": false,
          "internalType": "uint256",
          "name": "timestamp",
          "type": "uint256"
        }
      ],
      "name": "DistributePool",
      "type": "event"
    },
    {
      "anonymous": false,
      "inputs": [
        {
          "indexed": false,
          "internalType": "uint8",
          "name": "inputRank",
          "type": "uint8"
        },
        {
          "indexed": false,
          "internalType": "uint256",
          "name": "newCost",
          "type": "uint256"
        }
      ],
      "name": "FTCostUpdated",
      "type": "event"
    },
    {
      "anonymous": false,
      "inputs": [
        {
          "indexed": false,
          "internalType": "enum POLKING.Rank",
          "name": "current",
          "type": "uint8"
        },
        {
          "indexed": false,
          "internalType": "uint256",
          "name": "amount",
          "type": "uint256"
        }
      ],
      "name": "FastTrack",
      "type": "event"
    },
    {
      "anonymous": false,
      "inputs": [
        {
          "indexed": true,
          "internalType": "address",
          "name": "previousOwner",
          "type": "address"
        },
        {
          "indexed": true,
          "internalType": "address",
          "name": "newOwner",
          "type": "address"
        }
      ],
      "name": "OwnershipTransferred",
      "type": "event"
    },
    {
      "anonymous": false,
      "inputs": [
        {
          "indexed": true,
          "internalType": "address",
          "name": "user",
          "type": "address"
        },
        {
          "indexed": false,
          "internalType": "enum POLKING.Rank",
          "name": "currentRank",
          "type": "uint8"
        },
        {
          "indexed": false,
          "internalType": "enum POLKING.Rank",
          "name": "nextRank",
          "type": "uint8"
        },
        {
          "indexed": false,
          "internalType": "bool",
          "name": "eligible",
          "type": "bool"
        },
        {
          "indexed": false,
          "internalType": "uint256",
          "name": "timestamp",
          "type": "uint256"
        }
      ],
      "name": "RankEvaluated",
      "type": "event"
    },
    {
      "anonymous": false,
      "inputs": [
        {
          "indexed": true,
          "internalType": "address",
          "name": "user",
          "type": "address"
        },
        {
          "indexed": false,
          "internalType": "uint8",
          "name": "prevRank",
          "type": "uint8"
        },
        {
          "indexed": false,
          "internalType": "uint8",
          "name": "newRank",
          "type": "uint8"
        },
        {
          "indexed": false,
          "internalType": "string",
          "name": "tokenURI",
          "type": "string"
        },
        {
          "indexed": false,
          "internalType": "uint256",
          "name": "timestamp",
          "type": "uint256"
        }
      ],
      "name": "RankedUp",
      "type": "event"
    },
    {
      "anonymous": false,
      "inputs": [
        {
          "indexed": true,
          "internalType": "address",
          "name": "user",
          "type": "address"
        },
        {
          "indexed": true,
          "internalType": "address",
          "name": "referrer",
          "type": "address"
        },
        {
          "indexed": false,
          "internalType": "uint256",
          "name": "maticAmt",
          "type": "uint256"
        },
        {
          "indexed": false,
          "internalType": "uint256",
          "name": "tokenAmt",
          "type": "uint256"
        }
      ],
      "name": "ReferralReward",
      "type": "event"
    },
    {
      "anonymous": false,
      "inputs": [
        {
          "indexed": true,
          "internalType": "address",
          "name": "user",
          "type": "address"
        },
        {
          "indexed": false,
          "internalType": "uint256",
          "name": "maticAmt",
          "type": "uint256"
        },
        {
          "indexed": false,
          "internalType": "uint256",
          "name": "tokenAmt",
          "type": "uint256"
        },
        {
          "indexed": false,
          "internalType": "uint256",
          "name": "totalRewards",
          "type": "uint256"
        },
        {
          "indexed": false,
          "internalType": "uint256",
          "name": "bonus",
          "type": "uint256"
        }
      ],
      "name": "RewardsClaimed",
      "type": "event"
    },
    {
      "anonymous": false,
      "inputs": [
        {
          "indexed": true,
          "internalType": "address",
          "name": "user",
          "type": "address"
        },
        {
          "indexed": false,
          "internalType": "uint256",
          "name": "amount",
          "type": "uint256"
        },
        {
          "indexed": true,
          "internalType": "address",
          "name": "referrer",
          "type": "address"
        },
        {
          "indexed": false,
          "internalType": "uint256",
          "name": "stakeId",
          "type": "uint256"
        },
        {
          "indexed": false,
          "internalType": "uint256",
          "name": "activeStakesCount",
          "type": "uint256"
        }
      ],
      "name": "Staked",
      "type": "event"
    },
    {
      "anonymous": false,
      "inputs": [
        {
          "indexed": false,
          "internalType": "uint8",
          "name": "thresholdType",
          "type": "uint8"
        },
        {
          "indexed": false,
          "internalType": "uint256",
          "name": "newValue",
          "type": "uint256"
        }
      ],
      "name": "ThresholdUpdated",
      "type": "event"
    },
    {
      "anonymous": false,
      "inputs": [
        {
          "indexed": true,
          "internalType": "address",
          "name": "from",
          "type": "address"
        },
        {
          "indexed": true,
          "internalType": "address",
          "name": "to",
          "type": "address"
        },
        {
          "indexed": false,
          "internalType": "uint256",
          "name": "value",
          "type": "uint256"
        }
      ],
      "name": "Transfer",
      "type": "event"
    },
    {
      "anonymous": false,
      "inputs": [
        {
          "indexed": true,
          "internalType": "enum POLKING.Rank",
          "name": "rank",
          "type": "uint8"
        },
        {
          "indexed": false,
          "internalType": "uint256",
          "name": "duration",
          "type": "uint256"
        }
      ],
      "name": "setFastTrackCD",
      "type": "event"
    },
    {
      "inputs": [],
      "name": "PK",
      "outputs": [
        {
          "internalType": "contract IERC20",
          "name": "",
          "type": "address"
        }
      ],
      "stateMutability": "view",
      "type": "function"
    },
    {
      "inputs": [],
      "name": "POLKINGrank",
      "outputs": [
        {
          "internalType": "contract IPOLKINGRANK",
          "name": "",
          "type": "address"
        }
      ],
      "stateMutability": "view",
      "type": "function"
    },
    {
      "inputs": [
        {
          "internalType": "address",
          "name": "referrer",
          "type": "address"
        }
      ],
      "name": "Stake",
      "outputs": [],
      "stateMutability": "payable",
      "type": "function"
    },
    {
      "inputs": [
        {
          "internalType": "address",
          "name": "user",
          "type": "address"
        }
      ],
      "name": "TotalStakeCount",
      "outputs": [
        {
          "internalType": "uint256",
          "name": "",
          "type": "uint256"
        }
      ],
      "stateMutability": "view",
      "type": "function"
    },
    {
      "inputs": [
        {
          "internalType": "address",
          "name": "",
          "type": "address"
        },
        {
          "internalType": "uint256",
          "name": "",
          "type": "uint256"
        }
      ],
      "name": "activeStakes",
      "outputs": [
        {
          "internalType": "uint256",
          "name": "",
          "type": "uint256"
        }
      ],
      "stateMutability": "view",
      "type": "function"
    },
    {
      "inputs": [
        {
          "internalType": "address",
          "name": "",
          "type": "address"
        }
      ],
      "name": "activeStakesCount",
      "outputs": [
        {
          "internalType": "uint256",
          "name": "",
          "type": "uint256"
        }
      ],
      "stateMutability": "view",
      "type": "function"
    },
    {
      "inputs": [
        {
          "internalType": "uint256",
          "name": "",
          "type": "uint256"
        }
      ],
      "name": "allUsers",
      "outputs": [
        {
          "internalType": "address",
          "name": "",
          "type": "address"
        }
      ],
      "stateMutability": "view",
      "type": "function"
    },
    {
      "inputs": [
        {
          "internalType": "address",
          "name": "owner",
          "type": "address"
        },
        {
          "internalType": "address",
          "name": "spender",
          "type": "address"
        }
      ],
      "name": "allowance",
      "outputs": [
        {
          "internalType": "uint256",
          "name": "",
          "type": "uint256"
        }
      ],
      "stateMutability": "view",
      "type": "function"
    },
    {
      "inputs": [
        {
          "internalType": "address",
          "name": "spender",
          "type": "address"
        },
        {
          "internalType": "uint256",
          "name": "value",
          "type": "uint256"
        }
      ],
      "name": "approve",
      "outputs": [
        {
          "internalType": "bool",
          "name": "",
          "type": "bool"
        }
      ],
      "stateMutability": "nonpayable",
      "type": "function"
    },
    {
      "inputs": [
        {
          "internalType": "address",
          "name": "account",
          "type": "address"
        }
      ],
      "name": "balanceOf",
      "outputs": [
        {
          "internalType": "uint256",
          "name": "",
          "type": "uint256"
        }
      ],
      "stateMutability": "view",
      "type": "function"
    },
    {
      "inputs": [
        {
          "internalType": "address",
          "name": "",
          "type": "address"
        }
      ],
      "name": "branchStakeVolume",
      "outputs": [
        {
          "internalType": "uint256",
          "name": "",
          "type": "uint256"
        }
      ],
      "stateMutability": "view",
      "type": "function"
    },
    {
      "inputs": [],
      "name": "claim",
      "outputs": [],
      "stateMutability": "nonpayable",
      "type": "function"
    },
    {
      "inputs": [
        {
          "internalType": "uint256",
          "name": "",
          "type": "uint256"
        }
      ],
      "name": "claimPercents",
      "outputs": [
        {
          "internalType": "uint256",
          "name": "",
          "type": "uint256"
        }
      ],
      "stateMutability": "view",
      "type": "function"
    },
    {
      "inputs": [],
      "name": "claimRank",
      "outputs": [],
      "stateMutability": "nonpayable",
      "type": "function"
    },
    {
      "inputs": [],
      "name": "decimals",
      "outputs": [
        {
          "internalType": "uint8",
          "name": "",
          "type": "uint8"
        }
      ],
      "stateMutability": "view",
      "type": "function"
    },
    {
      "inputs": [],
      "name": "dev1",
      "outputs": [
        {
          "internalType": "address",
          "name": "",
          "type": "address"
        }
      ],
      "stateMutability": "view",
      "type": "function"
    },
    {
      "inputs": [
        {
          "internalType": "enum POLKING.Rank",
          "name": "rank",
          "type": "uint8"
        }
      ],
      "name": "distributeRankPool",
      "outputs": [],
      "stateMutability": "nonpayable",
      "type": "function"
    },
    {
      "inputs": [
        {
          "internalType": "address",
          "name": "recipient",
          "type": "address"
        }
      ],
      "name": "distributeTotalRankPoolsToAddress",
      "outputs": [],
      "stateMutability": "nonpayable",
      "type": "function"
    },
    {
      "inputs": [
        {
          "internalType": "address",
          "name": "",
          "type": "address"
        },
        {
          "internalType": "uint256",
          "name": "",
          "type": "uint256"
        }
      ],
      "name": "downlines",
      "outputs": [
        {
          "internalType": "address",
          "name": "",
          "type": "address"
        }
      ],
      "stateMutability": "view",
      "type": "function"
    },
    {
      "inputs": [],
      "name": "dukeBonus",
      "outputs": [
        {
          "internalType": "uint256",
          "name": "",
          "type": "uint256"
        }
      ],
      "stateMutability": "view",
      "type": "function"
    },
    {
      "inputs": [],
      "name": "dukeCount",
      "outputs": [
        {
          "internalType": "uint256",
          "name": "",
          "type": "uint256"
        }
      ],
      "stateMutability": "view",
      "type": "function"
    },
    {
      "inputs": [],
      "name": "dukePoolx",
      "outputs": [
        {
          "internalType": "uint256",
          "name": "",
          "type": "uint256"
        }
      ],
      "stateMutability": "view",
      "type": "function"
    },
    {
      "inputs": [],
      "name": "dukeThreshold",
      "outputs": [
        {
          "internalType": "uint256",
          "name": "",
          "type": "uint256"
        }
      ],
      "stateMutability": "view",
      "type": "function"
    },
    {
      "inputs": [],
      "name": "dukeURI",
      "outputs": [
        {
          "internalType": "string",
          "name": "",
          "type": "string"
        }
      ],
      "stateMutability": "view",
      "type": "function"
    },
    {
      "inputs": [
        {
          "internalType": "enum POLKING.Rank",
          "name": "",
          "type": "uint8"
        }
      ],
      "name": "durationOfuserCDTime",
      "outputs": [
        {
          "internalType": "uint256",
          "name": "",
          "type": "uint256"
        }
      ],
      "stateMutability": "view",
      "type": "function"
    },
    {
      "inputs": [
        {
          "internalType": "enum POLKING.Rank",
          "name": "",
          "type": "uint8"
        },
        {
          "internalType": "uint256",
          "name": "",
          "type": "uint256"
        }
      ],
      "name": "eligibleRankUsers",
      "outputs": [
        {
          "internalType": "address",
          "name": "",
          "type": "address"
        }
      ],
      "stateMutability": "view",
      "type": "function"
    },
    {
      "inputs": [
        {
          "internalType": "address",
          "name": "user",
          "type": "address"
        }
      ],
      "name": "evaluateRank",
      "outputs": [
        {
          "internalType": "bool",
          "name": "",
          "type": "bool"
        }
      ],
      "stateMutability": "view",
      "type": "function"
    },
    {
      "inputs": [
        {
          "internalType": "uint256",
          "name": "amount",
          "type": "uint256"
        }
      ],
      "name": "fastTrack",
      "outputs": [],
      "stateMutability": "nonpayable",
      "type": "function"
    },
    {
      "inputs": [
        {
          "internalType": "address",
          "name": "",
          "type": "address"
        }
      ],
      "name": "fastTrackCost",
      "outputs": [
        {
          "internalType": "uint256",
          "name": "",
          "type": "uint256"
        }
      ],
      "stateMutability": "view",
      "type": "function"
    },
    {
      "inputs": [],
      "name": "fastTrackDuke2King",
      "outputs": [
        {
          "internalType": "uint256",
          "name": "",
          "type": "uint256"
        }
      ],
      "stateMutability": "view",
      "type": "function"
    },
    {
      "inputs": [],
      "name": "fastTrackKnight2Duke",
      "outputs": [
        {
          "internalType": "uint256",
          "name": "",
          "type": "uint256"
        }
      ],
      "stateMutability": "view",
      "type": "function"
    },
    {
      "inputs": [],
      "name": "fastTrackRecruit2Soldier",
      "outputs": [
        {
          "internalType": "uint256",
          "name": "",
          "type": "uint256"
        }
      ],
      "stateMutability": "view",
      "type": "function"
    },
    {
      "inputs": [],
      "name": "fastTrackSoldier2Knight",
      "outputs": [
        {
          "internalType": "uint256",
          "name": "",
          "type": "uint256"
        }
      ],
      "stateMutability": "view",
      "type": "function"
    },
    {
      "inputs": [
        {
          "internalType": "address",
          "name": "root",
          "type": "address"
        }
      ],
      "name": "getBranchVolumesFromBatch",
      "outputs": [
        {
          "internalType": "address[]",
          "name": "addresses",
          "type": "address[]"
        },
        {
          "internalType": "uint256[]",
          "name": "volumes",
          "type": "uint256[]"
        }
      ],
      "stateMutability": "view",
      "type": "function"
    },
    {
      "inputs": [
        {
          "internalType": "address",
          "name": "user",
          "type": "address"
        },
        {
          "internalType": "uint8",
          "name": "maxDepth",
          "type": "uint8"
        }
      ],
      "name": "getDownlineBatchInfo",
      "outputs": [
        {
          "components": [
            {
              "internalType": "address",
              "name": "user",
              "type": "address"
            },
            {
              "internalType": "uint256",
              "name": "volume",
              "type": "uint256"
            },
            {
              "internalType": "uint256",
              "name": "activeStakeCount",
              "type": "uint256"
            }
          ],
          "internalType": "struct POLKING.DownlineInfo[]",
          "name": "",
          "type": "tuple[]"
        }
      ],
      "stateMutability": "view",
      "type": "function"
    },
    {
      "inputs": [
        {
          "internalType": "address",
          "name": "user",
          "type": "address"
        }
      ],
      "name": "getDownlines",
      "outputs": [
        {
          "internalType": "address[]",
          "name": "",
          "type": "address[]"
        }
      ],
      "stateMutability": "view",
      "type": "function"
    },
    {
      "inputs": [
        {
          "internalType": "address",
          "name": "user",
          "type": "address"
        }
      ],
      "name": "getFastTrackCost",
      "outputs": [
        {
          "internalType": "uint256",
          "name": "",
          "type": "uint256"
        }
      ],
      "stateMutability": "view",
      "type": "function"
    },
    {
      "inputs": [
        {
          "internalType": "address",
          "name": "user",
          "type": "address"
        }
      ],
      "name": "getLiveRewardsData",
      "outputs": [
        {
          "internalType": "uint256",
          "name": "totalUnclaimed",
          "type": "uint256"
        },
        {
          "internalType": "uint256",
          "name": "rewardsPerSecond",
          "type": "uint256"
        }
      ],
      "stateMutability": "view",
      "type": "function"
    },
    {
      "inputs": [
        {
          "internalType": "enum POLKING.Rank",
          "name": "rank",
          "type": "uint8"
        }
      ],
      "name": "getNextRankCD",
      "outputs": [
        {
          "internalType": "uint256",
          "name": "",
          "type": "uint256"
        }
      ],
      "stateMutability": "view",
      "type": "function"
    },
    {
      "inputs": [
        {
          "internalType": "uint256",
          "name": "amount",
          "type": "uint256"
        }
      ],
      "name": "getPlan",
      "outputs": [
        {
          "internalType": "uint8",
          "name": "",
          "type": "uint8"
        }
      ],
      "stateMutability": "view",
      "type": "function"
    },
    {
      "inputs": [],
      "name": "getRankCounts",
      "outputs": [
        {
          "internalType": "uint256",
          "name": "soldiers",
          "type": "uint256"
        },
        {
          "internalType": "uint256",
          "name": "knights",
          "type": "uint256"
        },
        {
          "internalType": "uint256",
          "name": "dukes",
          "type": "uint256"
        },
        {
          "internalType": "uint256",
          "name": "kings",
          "type": "uint256"
        }
      ],
      "stateMutability": "view",
      "type": "function"
    },
    {
      "inputs": [
        {
          "internalType": "uint8",
          "name": "plan",
          "type": "uint8"
        }
      ],
      "name": "getRate",
      "outputs": [
        {
          "internalType": "uint256",
          "name": "roiBps",
          "type": "uint256"
        }
      ],
      "stateMutability": "view",
      "type": "function"
    },
    {
      "inputs": [
        {
          "internalType": "address",
          "name": "user",
          "type": "address"
        }
      ],
      "name": "getRewardsOverviewData",
      "outputs": [
        {
          "internalType": "uint256",
          "name": "totalPassiveRewards",
          "type": "uint256"
        },
        {
          "internalType": "uint256",
          "name": "totalActiveRewards",
          "type": "uint256"
        },
        {
          "internalType": "uint256",
          "name": "totalMaticPaid",
          "type": "uint256"
        },
        {
          "internalType": "uint256",
          "name": "totalTokenPaid",
          "type": "uint256"
        }
      ],
      "stateMutability": "view",
      "type": "function"
    },
    {
      "inputs": [
        {
          "internalType": "address",
          "name": "user",
          "type": "address"
        }
      ],
      "name": "getStakeAmount",
      "outputs": [
        {
          "internalType": "uint256",
          "name": "",
          "type": "uint256"
        }
      ],
      "stateMutability": "view",
      "type": "function"
    },
    {
      "inputs": [
        {
          "internalType": "address",
          "name": "user",
          "type": "address"
        }
      ],
      "name": "getStakeTimestamp",
      "outputs": [
        {
          "internalType": "uint256",
          "name": "",
          "type": "uint256"
        }
      ],
      "stateMutability": "view",
      "type": "function"
    },
    {
      "inputs": [
        {
          "internalType": "address",
          "name": "user",
          "type": "address"
        }
      ],
      "name": "getTop2BranchTotals",
      "outputs": [
        {
          "internalType": "address",
          "name": "top1Address",
          "type": "address"
        },
        {
          "internalType": "uint256",
          "name": "top1Volume",
          "type": "uint256"
        },
        {
          "internalType": "address",
          "name": "top2Address",
          "type": "address"
        },
        {
          "internalType": "uint256",
          "name": "top2Volume",
          "type": "uint256"
        }
      ],
      "stateMutability": "view",
      "type": "function"
    },
    {
      "inputs": [],
      "name": "getTotalRankPools",
      "outputs": [
        {
          "internalType": "uint256",
          "name": "totalAmount",
          "type": "uint256"
        }
      ],
      "stateMutability": "view",
      "type": "function"
    },
    {
      "inputs": [
        {
          "internalType": "address",
          "name": "user",
          "type": "address"
        }
      ],
      "name": "getUpline",
      "outputs": [
        {
          "internalType": "address[]",
          "name": "",
          "type": "address[]"
        }
      ],
      "stateMutability": "view",
      "type": "function"
    },
    {
      "inputs": [
        {
          "internalType": "address",
          "name": "user",
          "type": "address"
        }
      ],
      "name": "getUserRank",
      "outputs": [
        {
          "internalType": "enum POLKING.Rank",
          "name": "",
          "type": "uint8"
        }
      ],
      "stateMutability": "view",
      "type": "function"
    },
    {
      "inputs": [],
      "name": "globalPool",
      "outputs": [
        {
          "internalType": "uint256",
          "name": "",
          "type": "uint256"
        }
      ],
      "stateMutability": "view",
      "type": "function"
    },
    {
      "inputs": [
        {
          "internalType": "address",
          "name": "",
          "type": "address"
        }
      ],
      "name": "isKnownUser",
      "outputs": [
        {
          "internalType": "bool",
          "name": "",
          "type": "bool"
        }
      ],
      "stateMutability": "view",
      "type": "function"
    },
    {
      "inputs": [
        {
          "internalType": "address",
          "name": "",
          "type": "address"
        }
      ],
      "name": "isUserOnCD",
      "outputs": [
        {
          "internalType": "bool",
          "name": "",
          "type": "bool"
        }
      ],
      "stateMutability": "view",
      "type": "function"
    },
    {
      "inputs": [],
      "name": "kingBonus",
      "outputs": [
        {
          "internalType": "uint256",
          "name": "",
          "type": "uint256"
        }
      ],
      "stateMutability": "view",
      "type": "function"
    },
    {
      "inputs": [],
      "name": "kingCount",
      "outputs": [
        {
          "internalType": "uint256",
          "name": "",
          "type": "uint256"
        }
      ],
      "stateMutability": "view",
      "type": "function"
    },
    {
      "inputs": [],
      "name": "kingPoolx",
      "outputs": [
        {
          "internalType": "uint256",
          "name": "",
          "type": "uint256"
        }
      ],
      "stateMutability": "view",
      "type": "function"
    },
    {
      "inputs": [],
      "name": "kingThreshold",
      "outputs": [
        {
          "internalType": "uint256",
          "name": "",
          "type": "uint256"
        }
      ],
      "stateMutability": "view",
      "type": "function"
    },
    {
      "inputs": [],
      "name": "kingURI",
      "outputs": [
        {
          "internalType": "string",
          "name": "",
          "type": "string"
        }
      ],
      "stateMutability": "view",
      "type": "function"
    },
    {
      "inputs": [],
      "name": "knightBonus",
      "outputs": [
        {
          "internalType": "uint256",
          "name": "",
          "type": "uint256"
        }
      ],
      "stateMutability": "view",
      "type": "function"
    },
    {
      "inputs": [],
      "name": "knightCount",
      "outputs": [
        {
          "internalType": "uint256",
          "name": "",
          "type": "uint256"
        }
      ],
      "stateMutability": "view",
      "type": "function"
    },
    {
      "inputs": [],
      "name": "knightPoolx",
      "outputs": [
        {
          "internalType": "uint256",
          "name": "",
          "type": "uint256"
        }
      ],
      "stateMutability": "view",
      "type": "function"
    },
    {
      "inputs": [],
      "name": "knightThreshold",
      "outputs": [
        {
          "internalType": "uint256",
          "name": "",
          "type": "uint256"
        }
      ],
      "stateMutability": "view",
      "type": "function"
    },
    {
      "inputs": [],
      "name": "knightURI",
      "outputs": [
        {
          "internalType": "string",
          "name": "",
          "type": "string"
        }
      ],
      "stateMutability": "view",
      "type": "function"
    },
    {
      "inputs": [
        {
          "internalType": "address",
          "name": "",
          "type": "address"
        }
      ],
      "name": "lastRankedUpTime",
      "outputs": [
        {
          "internalType": "uint256",
          "name": "",
          "type": "uint256"
        }
      ],
      "stateMutability": "view",
      "type": "function"
    },
    {
      "inputs": [],
      "name": "listingFee",
      "outputs": [
        {
          "internalType": "uint256",
          "name": "",
          "type": "uint256"
        }
      ],
      "stateMutability": "view",
      "type": "function"
    },
    {
      "inputs": [],
      "name": "maxCap",
      "outputs": [
        {
          "internalType": "uint256",
          "name": "",
          "type": "uint256"
        }
      ],
      "stateMutability": "view",
      "type": "function"
    },
    {
      "inputs": [],
      "name": "minQualifying",
      "outputs": [
        {
          "internalType": "uint256",
          "name": "",
          "type": "uint256"
        }
      ],
      "stateMutability": "view",
      "type": "function"
    },
    {
      "inputs": [],
      "name": "name",
      "outputs": [
        {
          "internalType": "string",
          "name": "",
          "type": "string"
        }
      ],
      "stateMutability": "view",
      "type": "function"
    },
    {
      "inputs": [],
      "name": "nextRankCDDuke",
      "outputs": [
        {
          "internalType": "uint256",
          "name": "",
          "type": "uint256"
        }
      ],
      "stateMutability": "view",
      "type": "function"
    },
    {
      "inputs": [],
      "name": "nextRankCDKing",
      "outputs": [
        {
          "internalType": "uint256",
          "name": "",
          "type": "uint256"
        }
      ],
      "stateMutability": "view",
      "type": "function"
    },
    {
      "inputs": [],
      "name": "nextRankCDKnight",
      "outputs": [
        {
          "internalType": "uint256",
          "name": "",
          "type": "uint256"
        }
      ],
      "stateMutability": "view",
      "type": "function"
    },
    {
      "inputs": [],
      "name": "nextRankCDSoldier",
      "outputs": [
        {
          "internalType": "uint256",
          "name": "",
          "type": "uint256"
        }
      ],
      "stateMutability": "view",
      "type": "function"
    },
    {
      "inputs": [],
      "name": "owner",
      "outputs": [
        {
          "internalType": "address",
          "name": "",
          "type": "address"
        }
      ],
      "stateMutability": "view",
      "type": "function"
    },
    {
      "inputs": [],
      "name": "plan1Min",
      "outputs": [
        {
          "internalType": "uint256",
          "name": "",
          "type": "uint256"
        }
      ],
      "stateMutability": "view",
      "type": "function"
    },
    {
      "inputs": [],
      "name": "plan1Rate",
      "outputs": [
        {
          "internalType": "uint256",
          "name": "",
          "type": "uint256"
        }
      ],
      "stateMutability": "view",
      "type": "function"
    },
    {
      "inputs": [],
      "name": "plan2Min",
      "outputs": [
        {
          "internalType": "uint256",
          "name": "",
          "type": "uint256"
        }
      ],
      "stateMutability": "view",
      "type": "function"
    },
    {
      "inputs": [],
      "name": "plan2Rate",
      "outputs": [
        {
          "internalType": "uint256",
          "name": "",
          "type": "uint256"
        }
      ],
      "stateMutability": "view",
      "type": "function"
    },
    {
      "inputs": [],
      "name": "plan3Max",
      "outputs": [
        {
          "internalType": "uint256",
          "name": "",
          "type": "uint256"
        }
      ],
      "stateMutability": "view",
      "type": "function"
    },
    {
      "inputs": [],
      "name": "plan3Min",
      "outputs": [
        {
          "internalType": "uint256",
          "name": "",
          "type": "uint256"
        }
      ],
      "stateMutability": "view",
      "type": "function"
    },
    {
      "inputs": [],
      "name": "plan3Rate",
      "outputs": [
        {
          "internalType": "uint256",
          "name": "",
          "type": "uint256"
        }
      ],
      "stateMutability": "view",
      "type": "function"
    },
    {
      "inputs": [
        {
          "internalType": "enum POLKING.Rank",
          "name": "",
          "type": "uint8"
        }
      ],
      "name": "rankCounts",
      "outputs": [
        {
          "internalType": "uint256",
          "name": "",
          "type": "uint256"
        }
      ],
      "stateMutability": "view",
      "type": "function"
    },
    {
      "inputs": [
        {
          "internalType": "enum POLKING.Rank",
          "name": "",
          "type": "uint8"
        }
      ],
      "name": "rankPools",
      "outputs": [
        {
          "internalType": "uint256",
          "name": "",
          "type": "uint256"
        }
      ],
      "stateMutability": "view",
      "type": "function"
    },
    {
      "inputs": [],
      "name": "rebuildRankCountList",
      "outputs": [],
      "stateMutability": "nonpayable",
      "type": "function"
    },
    {
      "inputs": [],
      "name": "recruitBonus",
      "outputs": [
        {
          "internalType": "uint256",
          "name": "",
          "type": "uint256"
        }
      ],
      "stateMutability": "view",
      "type": "function"
    },
    {
      "inputs": [],
      "name": "recruitPoolx",
      "outputs": [
        {
          "internalType": "uint256",
          "name": "",
          "type": "uint256"
        }
      ],
      "stateMutability": "view",
      "type": "function"
    },
    {
      "inputs": [
        {
          "internalType": "uint256",
          "name": "",
          "type": "uint256"
        }
      ],
      "name": "referralPercents",
      "outputs": [
        {
          "internalType": "uint256",
          "name": "",
          "type": "uint256"
        }
      ],
      "stateMutability": "view",
      "type": "function"
    },
    {
      "inputs": [
        {
          "internalType": "address",
          "name": "",
          "type": "address"
        }
      ],
      "name": "referrers",
      "outputs": [
        {
          "internalType": "address",
          "name": "",
          "type": "address"
        }
      ],
      "stateMutability": "view",
      "type": "function"
    },
    {
      "inputs": [
        {
          "internalType": "enum POLKING.Rank",
          "name": "rank",
          "type": "uint8"
        }
      ],
      "name": "refreshEligibleRankUsers",
      "outputs": [],
      "stateMutability": "nonpayable",
      "type": "function"
    },
    {
      "inputs": [],
      "name": "renounceOwnership",
      "outputs": [],
      "stateMutability": "nonpayable",
      "type": "function"
    },
    {
      "inputs": [],
      "name": "rewardSplitMatic",
      "outputs": [
        {
          "internalType": "uint256",
          "name": "",
          "type": "uint256"
        }
      ],
      "stateMutability": "view",
      "type": "function"
    },
    {
      "inputs": [],
      "name": "rewardSplitToken",
      "outputs": [
        {
          "internalType": "uint256",
          "name": "",
          "type": "uint256"
        }
      ],
      "stateMutability": "view",
      "type": "function"
    },
    {
      "inputs": [
        {
          "internalType": "string",
          "name": "_uri",
          "type": "string"
        }
      ],
      "name": "setDukeURI",
      "outputs": [],
      "stateMutability": "nonpayable",
      "type": "function"
    },
    {
      "inputs": [
        {
          "internalType": "uint8",
          "name": "input",
          "type": "uint8"
        },
        {
          "internalType": "uint256",
          "name": "dur",
          "type": "uint256"
        }
      ],
      "name": "setDurationOfCDRankTime",
      "outputs": [],
      "stateMutability": "nonpayable",
      "type": "function"
    },
    {
      "inputs": [
        {
          "internalType": "uint8",
          "name": "input",
          "type": "uint8"
        },
        {
          "internalType": "uint256",
          "name": "inPK",
          "type": "uint256"
        }
      ],
      "name": "setFastTrackCost",
      "outputs": [],
      "stateMutability": "nonpayable",
      "type": "function"
    },
    {
      "inputs": [
        {
          "internalType": "string",
          "name": "_uri",
          "type": "string"
        }
      ],
      "name": "setKingURI",
      "outputs": [],
      "stateMutability": "nonpayable",
      "type": "function"
    },
    {
      "inputs": [
        {
          "internalType": "string",
          "name": "_uri",
          "type": "string"
        }
      ],
      "name": "setKnightURI",
      "outputs": [],
      "stateMutability": "nonpayable",
      "type": "function"
    },
    {
      "inputs": [
        {
          "internalType": "address",
          "name": "nft",
          "type": "address"
        },
        {
          "internalType": "uint8",
          "name": "_rank",
          "type": "uint8"
        }
      ],
      "name": "setNFTRank",
      "outputs": [],
      "stateMutability": "nonpayable",
      "type": "function"
    },
    {
      "inputs": [
        {
          "internalType": "uint256",
          "name": "_rate1",
          "type": "uint256"
        },
        {
          "internalType": "uint256",
          "name": "_rate2",
          "type": "uint256"
        },
        {
          "internalType": "uint256",
          "name": "_rate3",
          "type": "uint256"
        }
      ],
      "name": "setPlanRatesAndDurations",
      "outputs": [],
      "stateMutability": "nonpayable",
      "type": "function"
    },
    {
      "inputs": [
        {
          "internalType": "uint256",
          "name": "_plan1Min",
          "type": "uint256"
        },
        {
          "internalType": "uint256",
          "name": "_plan2Min",
          "type": "uint256"
        },
        {
          "internalType": "uint256",
          "name": "_plan3Min",
          "type": "uint256"
        },
        {
          "internalType": "uint256",
          "name": "_plan3Max",
          "type": "uint256"
        }
      ],
      "name": "setPlanThresholds",
      "outputs": [],
      "stateMutability": "nonpayable",
      "type": "function"
    },
    {
      "inputs": [
        {
          "internalType": "uint256",
          "name": "_soldier",
          "type": "uint256"
        },
        {
          "internalType": "uint256",
          "name": "_knight",
          "type": "uint256"
        },
        {
          "internalType": "uint256",
          "name": "_duke",
          "type": "uint256"
        },
        {
          "internalType": "uint256",
          "name": "_king",
          "type": "uint256"
        }
      ],
      "name": "setRankBonuses",
      "outputs": [],
      "stateMutability": "nonpayable",
      "type": "function"
    },
    {
      "inputs": [
        {
          "internalType": "address",
          "name": "_nft",
          "type": "address"
        }
      ],
      "name": "setRankNFT",
      "outputs": [],
      "stateMutability": "nonpayable",
      "type": "function"
    },
    {
      "inputs": [
        {
          "internalType": "uint256",
          "name": "_soldier",
          "type": "uint256"
        },
        {
          "internalType": "uint256",
          "name": "_knight",
          "type": "uint256"
        },
        {
          "internalType": "uint256",
          "name": "_duke",
          "type": "uint256"
        },
        {
          "internalType": "uint256",
          "name": "_king",
          "type": "uint256"
        }
      ],
      "name": "setRankPoolMultipliers",
      "outputs": [],
      "stateMutability": "nonpayable",
      "type": "function"
    },
    {
      "inputs": [
        {
          "internalType": "uint256[10]",
          "name": "newPercents",
          "type": "uint256[10]"
        }
      ],
      "name": "setReferralPercents",
      "outputs": [],
      "stateMutability": "nonpayable",
      "type": "function"
    },
    {
      "inputs": [
        {
          "internalType": "uint256",
          "name": "maticPercent",
          "type": "uint256"
        },
        {
          "internalType": "uint256",
          "name": "tokenPercent",
          "type": "uint256"
        }
      ],
      "name": "setRewardSplit",
      "outputs": [],
      "stateMutability": "nonpayable",
      "type": "function"
    },
    {
      "inputs": [
        {
          "internalType": "string",
          "name": "_uri",
          "type": "string"
        }
      ],
      "name": "setSoldierURI",
      "outputs": [],
      "stateMutability": "nonpayable",
      "type": "function"
    },
    {
      "inputs": [
        {
          "internalType": "uint8",
          "name": "thresholdType",
          "type": "uint8"
        },
        {
          "internalType": "uint256",
          "name": "newValue",
          "type": "uint256"
        }
      ],
      "name": "setThreshold",
      "outputs": [],
      "stateMutability": "nonpayable",
      "type": "function"
    },
    {
      "inputs": [],
      "name": "soldierBonus",
      "outputs": [
        {
          "internalType": "uint256",
          "name": "",
          "type": "uint256"
        }
      ],
      "stateMutability": "view",
      "type": "function"
    },
    {
      "inputs": [],
      "name": "soldierCount",
      "outputs": [
        {
          "internalType": "uint256",
          "name": "",
          "type": "uint256"
        }
      ],
      "stateMutability": "view",
      "type": "function"
    },
    {
      "inputs": [],
      "name": "soldierPoolx",
      "outputs": [
        {
          "internalType": "uint256",
          "name": "",
          "type": "uint256"
        }
      ],
      "stateMutability": "view",
      "type": "function"
    },
    {
      "inputs": [],
      "name": "soldierThreshold",
      "outputs": [
        {
          "internalType": "uint256",
          "name": "",
          "type": "uint256"
        }
      ],
      "stateMutability": "view",
      "type": "function"
    },
    {
      "inputs": [],
      "name": "soldierURI",
      "outputs": [
        {
          "internalType": "string",
          "name": "",
          "type": "string"
        }
      ],
      "stateMutability": "view",
      "type": "function"
    },
    {
      "inputs": [],
      "name": "stakePool",
      "outputs": [
        {
          "internalType": "uint256",
          "name": "",
          "type": "uint256"
        }
      ],
      "stateMutability": "view",
      "type": "function"
    },
    {
      "inputs": [
        {
          "internalType": "address",
          "name": "",
          "type": "address"
        },
        {
          "internalType": "uint256",
          "name": "",
          "type": "uint256"
        }
      ],
      "name": "stakes",
      "outputs": [
        {
          "internalType": "uint256",
          "name": "amount",
          "type": "uint256"
        },
        {
          "internalType": "uint256",
          "name": "startTime",
          "type": "uint256"
        },
        {
          "internalType": "uint256",
          "name": "claimed",
          "type": "uint256"
        },
        {
          "internalType": "uint256",
          "name": "rewardsClaimed",
          "type": "uint256"
        },
        {
          "internalType": "uint256",
          "name": "lastClaimedTime",
          "type": "uint256"
        },
        {
          "internalType": "uint256",
          "name": "remainingCap",
          "type": "uint256"
        },
        {
          "internalType": "uint8",
          "name": "plan",
          "type": "uint8"
        },
        {
          "internalType": "bool",
          "name": "active",
          "type": "bool"
        }
      ],
      "stateMutability": "view",
      "type": "function"
    },
    {
      "inputs": [],
      "name": "symbol",
      "outputs": [
        {
          "internalType": "string",
          "name": "",
          "type": "string"
        }
      ],
      "stateMutability": "view",
      "type": "function"
    },
    {
      "inputs": [
        {
          "internalType": "address",
          "name": "",
          "type": "address"
        }
      ],
      "name": "targetCDRankTime",
      "outputs": [
        {
          "internalType": "uint256",
          "name": "",
          "type": "uint256"
        }
      ],
      "stateMutability": "view",
      "type": "function"
    },
    {
      "inputs": [],
      "name": "tokenPool",
      "outputs": [
        {
          "internalType": "uint256",
          "name": "",
          "type": "uint256"
        }
      ],
      "stateMutability": "view",
      "type": "function"
    },
    {
      "inputs": [
        {
          "internalType": "address",
          "name": "",
          "type": "address"
        }
      ],
      "name": "totalPaidPol",
      "outputs": [
        {
          "internalType": "uint256",
          "name": "",
          "type": "uint256"
        }
      ],
      "stateMutability": "view",
      "type": "function"
    },
    {
      "inputs": [
        {
          "internalType": "address",
          "name": "",
          "type": "address"
        }
      ],
      "name": "totalPaidToken",
      "outputs": [
        {
          "internalType": "uint256",
          "name": "",
          "type": "uint256"
        }
      ],
      "stateMutability": "view",
      "type": "function"
    },
    {
      "inputs": [],
      "name": "totalSupply",
      "outputs": [
        {
          "internalType": "uint256",
          "name": "",
          "type": "uint256"
        }
      ],
      "stateMutability": "view",
      "type": "function"
    },
    {
      "inputs": [
        {
          "internalType": "address",
          "name": "to",
          "type": "address"
        },
        {
          "internalType": "uint256",
          "name": "value",
          "type": "uint256"
        }
      ],
      "name": "transfer",
      "outputs": [
        {
          "internalType": "bool",
          "name": "",
          "type": "bool"
        }
      ],
      "stateMutability": "nonpayable",
      "type": "function"
    },
    {
      "inputs": [
        {
          "internalType": "address",
          "name": "from",
          "type": "address"
        },
        {
          "internalType": "address",
          "name": "to",
          "type": "address"
        },
        {
          "internalType": "uint256",
          "name": "value",
          "type": "uint256"
        }
      ],
      "name": "transferFrom",
      "outputs": [
        {
          "internalType": "bool",
          "name": "",
          "type": "bool"
        }
      ],
      "stateMutability": "nonpayable",
      "type": "function"
    },
    {
      "inputs": [
        {
          "internalType": "address",
          "name": "newOwner",
          "type": "address"
        }
      ],
      "name": "transferOwnership",
      "outputs": [],
      "stateMutability": "nonpayable",
      "type": "function"
    },
    {
      "inputs": [
        {
          "internalType": "address",
          "name": "",
          "type": "address"
        },
        {
          "internalType": "address",
          "name": "",
          "type": "address"
        }
      ],
      "name": "treeLinked",
      "outputs": [
        {
          "internalType": "bool",
          "name": "",
          "type": "bool"
        }
      ],
      "stateMutability": "view",
      "type": "function"
    },
    {
      "inputs": [
        {
          "internalType": "address",
          "name": "",
          "type": "address"
        }
      ],
      "name": "userRanks",
      "outputs": [
        {
          "internalType": "enum POLKING.Rank",
          "name": "",
          "type": "uint8"
        }
      ],
      "stateMutability": "view",
      "type": "function"
    },
    {
      "inputs": [
        {
          "internalType": "address",
          "name": "",
          "type": "address"
        }
      ],
      "name": "userTokenIds",
      "outputs": [
        {
          "internalType": "uint256",
          "name": "",
          "type": "uint256"
        }
      ],
      "stateMutability": "view",
      "type": "function"
    },
    {
      "stateMutability": "payable",
      "type": "receive"
    }
  ],
  "bytecode": "0x608034620008f6576200686390601f906001600160401b0390601f1990388590038481018316820190848211838310176200083d5780839160409889948552833981010312620008f65780516001600160a01b038082169590939091869003620008f65760208093015192848416809403620008f6576200007f6200091c565b936007855266504f4c4b494e4760c81b828601526200009d6200091c565b9660029384895261504b60f01b848a015286518281116200083d5780600398620000c88a5462000955565b898111620008c4575b5086908983116001146200085f5760009262000853575b50508160011b91600019908a1b1c19161787555b88519182116200083d578190600499620001178b5462000955565b88811162000800575b5085918884116001146200079857506000926200078c575b50508160011b9160001990881b1c19161787555b87156200077557620001618895949562000992565b6001938460065587600c5583600a9586600d5560059788600e55603c600f556028601055662386f26fc10000601155683635c9adc5dea0000060125569010f0cf064dd5920000060135569152d02c7e14af6800000601455613a9860155560c860165561012c601755888d8c620001d7620008fb565b918b8352878a84015286818401528560608401528560808401528560a08401528560c08401528560e08401526101009186838501526101209387858201528d6000905b811062000746575050918887949392859362000235620008fb565b9788528d8801528601528760608601528160808601528160a08601528160c08601528160e0860152840152820152938d6000955b8a87106200072a575061326160f01b95506241eb009060006030558b6031558a6032556014603355601e60345560006035558a6036556014603755601e603855602860395567016345785d8a0000603a5567011c37937e080000603b5566b1a2bc2ec50000603c55666a94d74f430000603d5562c5c100603e556283d600603f55556220f580604155673782dace9d9000006042556729a2241af62c0000604355671bc16d674ec80000604455670de0b6b3a7640000604555836046556200033360475462000955565b82811162000705575b5060856047556047600052616c7960f01b84886000207f697066733a2f2f6261666b726569676b7a327572327969756864667535746a3781557f3663636973727172643577656b6f63366a737272366f3668626f75777a34796c868201550155620003a960485462000955565b828111620006e0575b5060856048556048600052616f6560f01b84886000207f697066733a2f2f6261666b726569676b6264323271666778753578727275747281557f356a616b646a326c643333367a366674336b366234366f37796b6276646d6b658682015501556200041f60495462000955565b828111620006bb575b506085604955604960005261626960f01b84886000207f697066733a2f2f6261666b726569676c78327336697968747778616a346c757281557f7a736871676b65366b61646973656a6b70696f6974756d767578656f6967356f86820155015562000495604a5462000955565b9082821162000696575b5050506085604a55604a6000527f7a7479737565677277677634777335646a676c6e37786f35347732706c65756585600020917f697066733a2f2f6261666b726569667064336c33657834773236726d783262728355820155015560018060a01b031990888260075416176007558160085416176008553090600954161760095530156200067f5781546a084595161401484a000000928382018092116200066a575530600052600081528760002082815401905587519182527fddf252ad1be2c89b69c2b068fc378daa952ba7f163c4a11628f55a4df523b3ef91600083833093a38460075416918215620006535730600052600082528860002054916a013da329b6336471800000928381106200063057906a0707f1ec5dcde3d8800000959493929130600052600082526a013da329b63364717fffff19018b60002055836000528a6000208381540190558a519283523092a355541633036200061957506200060b9062000992565b51615e879081620009dc8239f35b60249083519063118cdaa760e01b82523390820152fd5b88846064928d519263391434e360e21b8452309084015260248301526044820152fd5b885163ec442f0560e01b8152600081890152602490fd5b601188634e487b7160e01b6000525260246000fd5b875163ec442f0560e01b8152600081880152602490fd5b620006b292604a6000528860002092018b1c820191016200093c565b3880806200049f565b620006d990604960005282848a60002092018d1c820191016200093c565b3862000428565b620006fe90604860005282848a60002092018d1c820191016200093c565b38620003b2565b6200072390604760005282848a60002092018d1c820191016200093c565b386200033c565b805160ff166022880155958401958995508f9150880162000269565b925093959750508597959193508960ff845116930192816018015501918f8e8b9795938e958e9a989a6200021a565b8851631e4fbdf760e01b8152600081890152602490fd5b01519050388062000138565b909216918a600052856000209260005b87828210620007e9575050908460019594939210620007d0575b505050811b0187556200014c565b0151600019838a1b60f8161c19169055388080620007c2565b6001859682939686015181550195019301620007a8565b6200082c908c600052876000208a80870160051c8201928a881062000833575b0160051c01906200093c565b3862000120565b9250819262000820565b634e487b7160e01b600052604160045260246000fd5b015190503880620000e8565b60008b8152888120938616905b89828210620008ad57505090846001959493921062000894575b505050811b018755620000fc565b0151600019838c1b60f8161c1916905538808062000886565b60018596829396860151815501950193016200086c565b620008ef908b600052886000208b80860160051c8201928b871062000833570160051c01906200093c565b38620000d1565b600080fd5b6040519061014082016001600160401b038111838210176200083d57604052565b60408051919082016001600160401b038111838210176200083d57604052565b81811062000948575050565b600081556001016200093c565b90600182811c9216801562000987575b60208310146200097157565b634e487b7160e01b600052602260045260246000fd5b91607f169162000965565b600580546001600160a01b039283166001600160a01b0319821681179092559091167f8be0079c531659141344cd1fd0a4f28419497f9722a3daafe3b4186f6b6457e0600080a356fe608080604052600436101561001d575b50361561001b57600080fd5b005b60e0600035811c9182630103c90f1461494e5750816302633969146148e457816303cf5015146148c657816306fdde0314614836578163095ea7b3146147b05781630c2eb4031461478d5781630d34dcb3146146625781630fbef2f814614644578163104e99291461462657816314a9ea181461460857816316841ebf1461417357816318160ddd146141555781631b41125914613fd15781631c85185914613fb35781631dd769e314613f5a5781631eae018d14613e2857816323548b8b14613e0a57816323b872dd14613d1857816324c8e29614613cfc57816326cd527414613cd35781632df933db14613cb55781632f143dfc14613c84578163313ce56714613c6857816332e35fcb14613c335781633492a9d114613bf957816336839a3914613ace578163377a659714613a645781633785cf94146139ec578163382a27dd146139ce57816338fb2d561461397b578163391157841461395d5781633d098c00146136ef578163435795f8146136d357816343a595c51461362f578163440510531461359b57816348a94d9f146134ae5781634a3b68cc146134735781634aea2151146134575781634c037946146134395781634d5edd281461109c5781634e71d92d14612d8b578163553ed71514612ba2578163584b62a114612afb5781635b701458146129d05781635c31f93c146129785781635cc5043d1461295a5781635de74310146127b45781635edf59d21461277f57816367776c721461270757816369d920b2146126e95781636a1b7ecc146126cb5781636a37729c146126195781636a9dfd5d146125fb5781636bf860fb146125dd5781636f75b7c5146125bf5781636f773526146125a157816370a082311461256757816370e8e021146124a8578163715018a61461244b5781637246b05e1461242d578163731438441461240f578163761cdca9146123f15781637ab617ae1461233c57816382c9e67d1461231e57816382fe3e96146123005781638351ac03146122dd57816385643b0b146122bf578163880a4ada146122975781638a14391c146122795781638c000936146117785781638da5cb5b1461174f57816391ff13f81461173157816392d5c28e146116fb5781639490a51e146116bc5781639566ecfe1461142e57816395d89b4114611369578163963920a31461133d57816398b3b8c21461130357816398ff58cf146112e5578163a26992c8146112c7578163a2bdedf41461129e578163a327c45d14611275578163a558c0ad14611236578163a5ec9708146111fc578163a9059cbb146111cb578163aca146eb146111ad578163acbb417f14611156578163b0cb69f11461111c578163b1e078a2146110fe578163b2b8bc50146110e0578163b2d1573f1461109c578163b346cfcb14610f50578163b6c0160114610f32578163b7ebae0b14610f0f578163b8bd433714610ef1578163b94cab8114610ec1578163c58f22cd14610ea3578163c7064acd14610e85578163c9d1cb4414610e5c578163cb0b575414610e3e578163cb6f37ab14610e02578163cd69ddc114610de4578163cf1ea7fa14610d8e578163dae2efd214610d54578163db3ff1e114610d11578163dd40090414610c7f578163dd62ed3e14610c2e578163e18166f014610c10578163e32d3b8214610bd6578163e4ceae6714610a30578163e6c0a85114610a12578163e6eb6c74146109e5578163e8949067146109bc578163e8c4039214610982578163ef454107146107eb57508063f0466deb146107cd578063f23e3878146107a5578063f2f8dbb414610787578063f2fde38b146106ff578063f3356532146106c5578063f67233001461069a578063f8ea47561461067c578063fcea8d99146105b15763fe404c9614610580573861000f565b346105ac5760203660031901126105ac57600435600a8110156105ac5760209060220154604051908152f35b600080fd5b346105ac5760203660031901126105ac576105ca614984565b6000906000916000916105de60009161568e565b9490916000915b8651831015610655576105f88388615251565b51956001600160a01b0361060c8587615251565b5116928288111561062e5750506106269094959192615058565b9193906105e5565b959391929096868111610647575b505061062690615058565b90965094506106268861063c565b60809185876040519360018060a01b03809316855260208501521660408301526060820152f35b346105ac5760003660031901126105ac576020600b54604051908152f35b346105ac5760203660031901126105ac5760206106bd6106b8614984565b6155e4565b604051908152f35b346105ac5760203660031901126105ac576001600160a01b036106e6614984565b1660005260556020526020604060002054604051908152f35b346105ac5760203660031901126105ac57610718614984565b610720614ed7565b6001600160a01b0390811690811561076e57600580546001600160a01b031981168417909155167f8be0079c531659141344cd1fd0a4f28419497f9722a3daafe3b4186f6b6457e0600080a3005b604051631e4fbdf760e01b815260006004820152602490fd5b346105ac5760003660031901126105ac576020603654604051908152f35b346105ac576107b336614eb9565b926107bf929192614ed7565b603155603255603355603455005b346105ac5760003660031901126105ac576020604454604051908152f35b346105ac57602090816003193601126105ac57610806614984565b6001600160a01b03166000908152604c835260408120805491928392909161082d82615645565b9261083b6040519485614a93565b828452600091825286822090878086015b85851061090c575087600087895b81518310156108fd576108df6108e5916108748585615251565b519561088660ff60c089015116615b2b565b6108d263337f9800916108cb836108b58c6108b0856108a960808401514261504b565b9251615029565b615029565b0460a08c019687518083116108f5575b50614fe1565b9951615029565b049151156108ec57614fe1565b92615058565b919261085a565b60009150614fe1565b91508e6108c5565b60409084868351928352820152f35b60019160079160409a999a5161092181614a24565b865481528487015483820152600287015460408201526003870154606082015260048701546080820152600587015460a0820152600687015460ff9081811660c084015260081c16151586820152815201930193019291889097969761084c565b346105ac5760203660031901126105ac576001600160a01b036109a3614984565b1660005260516020526020604060002054604051908152f35b346105ac5760003660031901126105ac576008546040516001600160a01b039091168152602090f35b346105ac5760203660031901126105ac576020610a08610a03614984565b615265565b6040519015158152f35b346105ac5760003660031901126105ac576020602f54604051908152f35b346105ac5760003660031901126105ac57610a49614ed7565b605a602081815260007fc48a56c648a706c7ddf750a48d8e364cead678f3f242ca4df1b5b7635204055d8190557f7be5ee51d027b6c8015a965a6459d0a433e629ca2c4cdf7b825942d74599feb78190557f496e5d907de07020cda92270cd84040cacb6a5cba899d1f8aa52bb89a11354c1819055600481527f178852a22fa7effd34e61b21e7f9b1408a18a4be00b03be765f069e22db92f4f81905560039260019290916002845b610af857005b604b5482101561001b57610b0b82614b24565b905490871b1c6001600160a01b0316600090815260568452604090205460ff166005811015610bc0578592610b6091808503610b665750836000528585526040600020610b588154615058565b90555b615058565b91610af2565b808403610b845750826000528585526040600020610b588154615058565b808903610ba25750876000528585526040600020610b588154615058565b600403610b5b5760046000528585526040600020610b588154615058565b634e487b7160e01b600052602160045260246000fd5b346105ac5760203660031901126105ac576001600160a01b03610bf7614984565b16600052604c6020526020604060002054604051908152f35b346105ac5760003660031901126105ac576020603154604051908152f35b346105ac5760403660031901126105ac57610c47614984565b610c4f61499a565b9060018060a01b038091166000526001602052604060002091166000526020526020604060002054604051908152f35b346105ac5760603660031901126105ac57604435602435600435610ca1614ed7565b6103e8808211159081610d06575b81610cfb575b5015610cc657601555601655601755005b60405162461bcd60e51b815260206004820152600d60248201526c0a4c2e8ca40e8dede40d0d2ced609b1b6044820152606490fd5b905083111584610cb5565b808411159150610caf565b346105ac5760203660031901126105ac57610d2a614984565b610d32614ed7565b600880546001600160a01b0319166001600160a01b0392909216919091179055005b346105ac5760203660031901126105ac576001600160a01b03610d75614984565b16600052605c6020526020604060002054604051908152f35b346105ac5760403660031901126105ac57610da7614984565b610daf61499a565b9060018060a01b03809116600052605060205260406000209116600052602052602060ff604060002054166040519015158152f35b346105ac5760003660031901126105ac576020604654604051908152f35b346105ac5760203660031901126105ac57610e3a610e26610e21614984565b615b5e565b604051918291602083526020830190614e53565b0390f35b346105ac5760003660031901126105ac576020601354604051908152f35b346105ac5760003660031901126105ac576009546040516001600160a01b039091168152602090f35b346105ac5760003660031901126105ac576020604154604051908152f35b346105ac5760003660031901126105ac576020601654604051908152f35b346105ac5760003660031901126105ac57610e3a610edd614d78565b6040519182916020835260208301906149e4565b346105ac5760003660031901126105ac576020603b54604051908152f35b346105ac5760203660031901126105ac5760206106bd610f2d614e33565b615b2b565b346105ac5760003660031901126105ac576020603754604051908152f35b346105ac57610f5e36614ab4565b610f66614ed7565b80516001600160401b03811161108657610f81604a54614b9e565b601f811161102c575b50602080601f8311600114610fc857508192600092610fbd575b5050600019600383901b1c191660019190911b17604a55005b015190508280610fa4565b90601f19831693604a60005282600020926000905b8682106110145750508360019510610ffb575b505050811b01604a55005b015160001960f88460031b161c19169055828080610ff0565b80600185968294968601518155019501930190610fdd565b604a600052611076907ffcc5ba1a98fc477b8948a04d08c6f4a76181fe75021370ab5e6abd22b1792a2a601f840160051c8101916020851061107c575b601f0160051c0190615a3f565b82610f8a565b9091508190611069565b634e487b7160e01b600052604160045260246000fd5b346105ac5760203660031901126105ac576001600160a01b036110bd614984565b166000526056602052602060ff604060002054166110de6040518092614e90565bf35b346105ac5760003660031901126105ac576020601754604051908152f35b346105ac5760003660031901126105ac576020603d54604051908152f35b346105ac5760203660031901126105ac576001600160a01b0361113d614984565b1660005260526020526020604060002054604051908152f35b346105ac5760403660031901126105ac5760043560058110156105ac5761117f60243591614e1a565b80548210156105ac5760209161119491614b6a565b905460405160039290921b1c6001600160a01b03168152f35b346105ac5760003660031901126105ac576020601254604051908152f35b346105ac5760403660031901126105ac576111f16111e7614984565b6024359033614f03565b602060405160018152f35b346105ac5760203660031901126105ac576001600160a01b0361121d614984565b16600052605e6020526020604060002054604051908152f35b346105ac5760203660031901126105ac576001600160a01b03611257614984565b166000526057602052602060ff604060002054166040519015158152f35b346105ac5760003660031901126105ac576007546040516001600160a01b039091168152602090f35b346105ac5760203660031901126105ac57600435604b548110156105ac57611194602091614b24565b346105ac5760003660031901126105ac576020601554604051908152f35b346105ac5760003660031901126105ac576020601054604051908152f35b346105ac5760203660031901126105ac576001600160a01b03611324614984565b1660005260546020526020604060002054604051908152f35b346105ac5760203660031901126105ac57600435600a8110156105ac5760209060180154604051908152f35b346105ac5760003660031901126105ac5760405160045460008261138c83614b9e565b9182825260209360019085828216918260001461140e5750506001146113ce575b506113ba92500383614a93565b610e3a6040519282849384528301906149e4565b849150600460005281600020906000915b8583106113f65750506113ba9350820101856113ad565b805483890185015287945086939092019181016113df565b60ff1916858201526113ba95151560051b85010192508791506113ad9050565b346105ac576020806003193601126105ac57600435336000526056825260ff60406000205416916005831015610bc0576004831461168f57336000526053815260ff604060002054161561165d5733600052605281526040600020541561161a57336000526057815260ff60406000205416156115da576114ae336155e4565b82036115a35760018060a01b03600954166040518281016323b872dd60e01b81523360248301523060448301528460648301526064825260a08201908282106001600160401b03831117611086578492600092604052519082855af115611597576000513d61158e5750803b155b611576577fd3f352f04ff0466f0992f28c02b812ed9a5acfd269a7a96eb66818c6aa08cb83604085858533600052605781528360002060ff198154169055605b815242846000205561157084518094614e90565b820152a1005b60249060405190635274afe760e01b82526004820152fd5b6001141561151c565b6040513d6000823e3d90fd5b6064906040519062461bcd60e51b82526004820152601060248201526f125b98dbdc9c9958dd08185b5bdd5b9d60821b6044820152fd5b6064906040519062461bcd60e51b8252600482015260196024820152784e6f20636f6f6c646f776e20746f20666173742d747261636b60381b6044820152fd5b6064906040519062461bcd60e51b825280600483015260248201527f4174206c65617374203120616374697665207374616b652072657175697265646044820152fd5b6064906040519062461bcd60e51b82526004820152600b60248201526a14dd185ad948199a5c9cdd60aa1b6044820152fd5b6064906040519062461bcd60e51b8252600482015260066024820152654d617865642160d01b6044820152fd5b346105ac5760203660031901126105ac576001600160a01b036116dd614984565b166000526053602052602060ff604060002054166040519015158152f35b346105ac5760003660031901126105ac57611714614ed7565b602c54602d5490610e3a602e54602f549060405194859485614b82565b346105ac5760003660031901126105ac576020603454604051908152f35b346105ac5760003660031901126105ac576005546040516001600160a01b039091168152602090f35b60203660031901126105ac5761178c614984565b90611795615067565b34156122395760ff6117a634615abe565b1660018110158061222e575b156121f657336000526052602052600a60406000205410156121ba5733600052604d928360205260018060a01b036040600020541615806121a7575b80612195575b611ff8575b506064611808600d5434615029565b046000808080606461181c600e5434615029565b049461183c6118348761182f843461504b565b61504b565b600b54614fe1565b600b556007546001600160a01b0316828215611fef575bf115611597576118e66064918261186c60365483615029565b04600160005260586020526118876040600020918254614fe1565b90558261189660375483615029565b04600260005260586020526118b16040600020918254614fe1565b9055826118c060385483615029565b04600360005260586020526118db6040600020918254614fe1565b905560395490615029565b04600460005260586020526119016040600020918254614fe1565b9055336000526053602052604060002080549060ff821615611f73575b5050604c6020526040600020611936600c5434615029565b916040519261194484614a24565b348452426020850152600060408501526000606085015242608085015260a084015260c08301526001838301528054600160401b8110156110865761198e91600182018155614e9d565b611f5d57600690825181556020830151600182015560408301516002820155606083015160038201556080830151600482015560a08301516005820155019161ff0060ff60c084015116918454930151151560081b169161ffff19161717905533600052604c6020526040600020546000198101908111611f47573360005260526020526040600020611a218154615058565b905533600052605f602052604060002054606060205260406000208260005260205260406000205533600052605f60205260406000208054600160401b81101561108657611a7981611a929360018694018155614b6a565b90919082549060031b91821b91600019901b1916179055565b33600081815260208481526040808320546052835292819020548151348152928301959095528101939093526001600160a01b0316917f0d1b57de846e37edc71baa7b5046bf618d408f15d06c7a0fc1e47df48337994690606090a3336000908152602082905260408120549091906001600160a01b03165b600a60ff84161080611f35575b15611b67576001600160a01b03166000818152604f602052604090208054611b41903490614fe1565b905560005280602052611b6160018060a01b036040600020541692615240565b91611b0b565b60405160186000825b600a8210611f1f5783611b8281614a5b565b60405190611b8f82614a77565b610180908136843760405191611ba483614a77565b368337600080926000915b600a60ff84161015611c60576001600160a01b03611bd860ff8516611bd333615b5e565b615251565b511680151580611c49575b15611c255781611c1991611bfa611c1f948a615d23565b52611c0860ff861687615d12565b51611c138286615d23565b52615058565b92615240565b91611baf565b509193611c43611c1f91611c3c60ff881687615d12565b5190614fe1565b94615240565b5080600052604c6020526040600020541515611be3565b848692611c6c8361565c565b93611c768461565c565b9260005b8560ff82161015611cd457611ccf906001600160a01b03611c9e60ff831686615d23565b5116611cad60ff83168a615251565b52611cbb60ff821686615d23565b51611cc960ff831688615251565b52615240565b611c7a565b84828860005b8151811015611ef6576001600160a01b03611cf58284615251565b5116612710611d1a611d078488615251565b516108b0611d1485615d34565b34615029565b04805b611d32575b5050611d2d90615058565b611cda565b81600052605f6020526040600020805415611edf579082611d92611d57600394614b55565b905490851b1c9282600052604c602052611d75846040600020614e9d565b509360058501918254808211600014611ed557809485809361504b565b97889701611da1838254614fe1565b9055818103611ec4575050611db7915083615119565b611dd06064611dc8600f5484615029565b04809261504b565b600a5481808210159182611e87575b505050600b548281101580611e27575b505060405191825260208201527fbd7e5be34537a425747cf06d84eca4d59c865e2002b7d5f36f14558bdc5ae8cd60403392a3611d1d565b839550611e3a9392945061182f906150cb565b600b558360005260546020526040600020611e56838254614fe1565b9055600082858115611e7d575b600092839283928392f11561159757829184918a80611def565b6108fc9250611e63565b61182f611e939361508a565b600a558260005260556020526040600020611eaf828254614fe1565b9055611ebc818430614f03565b8a8181611ddf565b611ece925061504b565b9055611db7565b819485809361504b565b50611d2d929150611eef90615a56565b9085611d22565b6064611f028434615029565b0480611f10575b6001600655005b611f1990615a56565b80611f09565b6001602081928554815201930191019091611b70565b506001600160a01b0381161515611b18565b634e487b7160e01b600052601160045260246000fd5b634e487b7160e01b600052600060045260246000fd5b60ff199182166001179055604b54600160401b81101561108657806001611f9d9201604b55614b24565b81546001600160a01b0360039290921b91821b19163390911b179055604154611fc69042614fe1565b33600052605b60205260406000205560576020526001604060002091825416179055838061191e565b506108fc611853565b6001600160a01b03811692919083156121505733841461211357336000908152602086905260409020546001600160a01b03166120d7575b6001600160a01b0316801561209c57338114612063576000908152602085905260409020546001600160a01b0316612030565b60405162461bcd60e51b815260206004820152601160248201527010da5c98dd5b185c881c9959995c9c985b607a1b6044820152606490fd5b509091336000528360205260406000208160018060a01b0319825416179055600052604e6020526120d1336040600020614fee565b836117f9565b60405162461bcd60e51b8152602060048201526014602482015273149959995c9c995c88185b1c9958591e481cd95d60621b6044820152606490fd5b60405162461bcd60e51b815260206004820152601560248201527421b0b73737ba103932b332b9103cb7bab939b2b63360591b6044820152606490fd5b60405162461bcd60e51b815260206004820152601f60248201527f52656665727265722063616e6e6f74206265207a65726f2061646472657373006044820152606490fd5b506001600160a01b03811615156117f4565b506001600160a01b0381163314156117ee565b60405162461bcd60e51b81526020600482015260146024820152734d617820313020616374697665207374616b657360601b6044820152606490fd5b60405162461bcd60e51b815260206004820152601060248201526f506c616e206d75737420626520312d3360801b6044820152606490fd5b5060038111156117b2565b60405162461bcd60e51b815260206004820152601860248201527705374616b6520616d6f756e74206d757374206265203e20360441b6044820152606490fd5b346105ac5760003660031901126105ac576020601154604051908152f35b346105ac5760203660031901126105ac5760043560058110156105ac576106bd60209161559e565b346105ac5760003660031901126105ac576020603554604051908152f35b346105ac5760203660031901126105ac5760206106bd6122fb614984565b615c51565b346105ac5760003660031901126105ac576020604054604051908152f35b346105ac5760003660031901126105ac576020602e54604051908152f35b346105ac5760403660031901126105ac577fdb5b9b186511bfdcd9b99e8746ce6ba10046b3e8b772d0b792f17895a74ea0a8612376614e33565b60243590612382614ed7565b60ff81166123936003821115615df6565b806123bc5750816045555b6040805160ff9092168252602082019290925290819081015b0390a1005b600181036123cf5750816044555b61239e565b600281036123e157508160435561239e565b6003036123ca578160425561239e565b346105ac5760003660031901126105ac576020602c54604051908152f35b346105ac5760003660031901126105ac576020604254604051908152f35b346105ac5760003660031901126105ac576020604554604051908152f35b346105ac5760003660031901126105ac57612464614ed7565b600580546001600160a01b031981169091556000906001600160a01b03167f8be0079c531659141344cd1fd0a4f28419497f9722a3daafe3b4186f6b6457e08280a3005b346105ac576124b636614eb9565b926124c2929192614ed7565b8181108061255e575b1561252457838310156124e657601155601255601355601455005b60405162461bcd60e51b81526020600482015260166024820152750a0d8c2dc406640dad2dc407840a0d8c2dc4066dac2f60531b6044820152606490fd5b60405162461bcd60e51b8152602060048201526012602482015271496e76616c6964207468726573686f6c647360701b6044820152606490fd5b508282106124cb565b346105ac5760203660031901126105ac576001600160a01b03612588614984565b1660005260006020526020604060002054604051908152f35b346105ac5760003660031901126105ac576020601454604051908152f35b346105ac5760003660031901126105ac576020603954604051908152f35b346105ac5760003660031901126105ac576020603a54604051908152f35b346105ac5760003660031901126105ac576020603e54604051908152f35b346105ac576101403660031901126105ac5736610144116105ac5761263c614ed7565b6000805b600a60ff8316106126a65760641061267657600460005b600a811061266157005b60019060208335930192816018015501612657565b60405162461bcd60e51b81526020600482015260086024820152676d61783d3130302560c01b6044820152606490fd5b6126bf6126c591611fe08460051b166004013590614fe1565b91615240565b90612640565b346105ac5760003660031901126105ac576020600d54604051908152f35b346105ac5760003660031901126105ac576020603254604051908152f35b346105ac5761271536614eb9565b92612721929192614ed7565b606461273a85612735866127358787614fe1565b614fe1565b0361274d57603655603755603855603955005b60405162461bcd60e51b815260206004820152600a602482015269546f74616c3d3130302560b01b6044820152606490fd5b346105ac5760203660031901126105ac5760043560058110156105ac57600052605a6020526020604060002054604051908152f35b346105ac576020806003193601126105ac5760043560058110156105ac576127da614ed7565b6127e381614e1a565b91604051808483829654938481520190600052836000209260005b8582821061293b5750505061281592500384614a93565b825180156128fd5761282683614e01565b549182156128c7575080820480159060005b83811061288957857f16688f6846ae2ae8492621ad0a74efa4b4d87e26ddc1ebc46f78f9461e47fa0a8686600061286e85614e01565b556040805192835260208301919091524290820152606090a2005b6000808080856001600160a01b036128a1878e615251565b511682896128be575bf115611597576128b990615058565b612838565b506108fc6128aa565b6064906040519062461bcd60e51b82526004820152600f60248201526e139bdd1a1a5b99c81a5b881c1bdbdb608a1b6044820152fd5b60405162461bcd60e51b81526004810183905260166024820152754e6f20656c696769626c6520726563697069656e747360501b6044820152606490fd5b85546001600160a01b03168452600195860195899550930192016127fe565b346105ac5760003660031901126105ac576020600f54604051908152f35b346105ac5760403660031901126105ac57612991614984565b6001600160a01b03166000908152605f60205260409020805460243591908210156105ac576020916129c291614b6a565b90546040519160031b1c8152f35b346105ac576129de36614ab4565b6129e6614ed7565b80516001600160401b03811161108657612a01604854614b9e565b601f8111612aac575b50602080601f8311600114612a4857508192600092612a3d575b5050600019600383901b1c191660019190911b17604855005b015190508280612a24565b90601f19831693604860005282600020926000905b868210612a945750508360019510612a7b575b505050811b01604855005b015160001960f88460031b161c19169055828080612a70565b80600185968294968601518155019501930190612a5d565b6048600052612af5907f15040156076f78057c0a886f6dbac29221fa3c2646adbc8effedab98152ff32b601f840160051c8101916020851061107c57601f0160051c0190615a3f565b82612a0a565b346105ac5760403660031901126105ac57612b14614984565b6001600160a01b03166000908152604c6020526040902080546024359291908310156105ac5761010092612b4791614e9d565b509060ff825492600181015490600281015460038201546004830154916006600585015494015494604051988952602089015260408801526060870152608086015260a085015281811660c085015260081c16151590820152f35b346105ac5760403660031901126105ac57612bbb614984565b612bc3614e43565b60018060a01b038092166000526020604e8152604060002091604051808484829654938481520190600052846000209260005b86828210612d7357505050612c0d92500384614a93565b825191612c1983615645565b92612c276040519485614a93565b808452612c36601f1991615645565b018160005b828110612d485750505060005b8451811015612cf1578086612c60612ce39388615251565b5116612c8b612caf612c7a612c748861544b565b846158e6565b9290612c8585615c01565b90614fe1565b9183600052605287526040600020541515600014612ce85760ff60015b1690614fe1565b9060405192612cbd84614a40565b8352858301526040820152612cd28287615251565b52612cdd8186615251565b50615058565b612c48565b60ff6000612ca8565b50925050604051918083018184528251809152816040850193019160005b828110612d1c5785850386f35b835180518816865280830151868401526040908101519086015260609094019392810192600101612d0f565b604051612d5481614a40565b6000815260008382015260006040820152828288010152018290612c3b565b85548a16845260019586019589955093019201612bf6565b346105ac5760003660031901126105ac57612da4615067565b60008033600052605f602052604060002090612dbf33615d34565b9082541561340157926000925b8054841015612ed657612ddf8482614b6a565b90549060031b1c33600052604c602052612e91612e00826040600020614e9d565b506002810180549889612ec15763337f9800612e40612e2460018601545b4261504b565b612e3a8654916108b060ff60068a015416615b2b565b90615029565b04906064612e4e8a84615029565b0492600585019b8c5495868611612eb9575b95612e8392612e7c87809994612e8b9995600442910155614fe1565b905561504b565b809b55614fe1565b94614fe1565b95612ea857612ea09033615119565b939093612dcc565b5092612eb390615058565b92612ea0565b869550612e60565b63337f9800612e40612e246004860154612e1e565b849054336000526052602052604060002055600a8102818104600a1482151715611f47576064900490612f0882615a56565b6040519160226000845b600a82106133eb57505050612f2683614a5b565b60405191612f3383614a77565b610180918236853760405192612f4884614a77565b3684376000938491825b60ff8716600a811015612fe9576001600160a01b03612f7482611bd333615b5e565b511680151580612fd2575b15612fb85791612fa1612fac92612fb294612f9a8489615d23565b528b615d12565b51611c13828a615d23565b96615240565b95612f52565b50612fb2919794611c3c612fcc928b615d12565b93615240565b5080600052604c6020526040600020541515612f7f565b5085898b948688612ff98661565c565b936130038761565c565b9860005b8a60ff82168a8110156130535761304e929190611cc9906001600160a01b03613030828c615d23565b511661303c828d615251565b52613047818d615d23565b5192615251565b613007565b509550508590899260005b835181101561329b576001600160a01b036130798286615251565b5116613085828a615251565b51906127106130a161309683615d34565b936108b0858c615029565b0491825b6130bb575b5050506130b690615058565b61305e565b81600098939852605f602052604060002080541561328257976130e061311b99614b55565b94905484600052604c6020526130ff818760031b1c6040600020614e9d565b509060058201549687851160001461327857879c8d809661504b565b9c8d986003850161312d838254614fe1565b9055818103613262575050613147925060031b1c85615119565b6064613155600f5484615029565b04613160818461504b565b9081613221575b8c811580156131ba575b506131b494939287926131ac887f5619b8583bbbb0760d27ac9ff844cec866b333bf7ad0262c2d809ff42f22e5fc9460405194859485614b82565b0390a2614fe1565b976130a5565b91949392975050600b6131d585825461182f828210156150cb565b905585600052605460205260406000206131f0858254614fe1565b90558386600092613217575b600092839283928392f115611597579091948a958c38613171565b6108fc92506131fc565b61323482600a5461182f8282101561508a565b600a558560005260556020526040600020613250838254614fe1565b905561325d828730614f03565b613167565b60059350613270925061504b565b910155613147565b849c8d809661504b565b50505094906132936130b692615a56565b9089806130aa565b85836132c2878561182f6132bc60646132b48f89615029565b048094614fe1565b92615a56565b916132dc60646132d4600f5486615029565b04809461504b565b806133aa575b838015801561332b575b50506133217f7708755c9b641bf197be5047b04002d2e88fa658c173a351067747eb5dfc568a93604051938493339785614b82565b0390a26001600655005b61333e82600b5461182f828210156150cb565b600b556000906133a1575b600080809381933390f115611597576133217f7708755c9b641bf197be5047b04002d2e88fa658c173a351067747eb5dfc568a933360005260546020526040600020613396878254614fe1565b9055938591506132ec565b506108fc613349565b6133bd81600a5461182f8282101561508a565b600a5533600052605560205260406000206133d9828254614fe1565b90556133e6813330614f03565b6132e2565b6001602081928554815201930191019091612f12565b60405162461bcd60e51b815260206004820152601060248201526f4e6f20616374697665207374616b657360801b6044820152606490fd5b346105ac5760003660031901126105ac576020603054604051908152f35b346105ac5760003660031901126105ac57610e3a610edd614cf9565b346105ac5760203660031901126105ac5760206001600160a01b0380613497614984565b16600052604d825260406000205416604051908152f35b346105ac576020806003193601126105ac576005600435818110159291836105ac576134d8614ed7565b6134e182614e1a565b80546000825580613580575b505060005b604b5481101561001b57806135078692614b24565b905460039190911b1c6001600160a01b0316600081815260568752604090205460ff1692610bc05783831015610bc0578461354d93148061356a575b6135525750615058565b6134f2565b6135649061355f86614e1a565b614fee565b86612cdd565b5080600052605f86526040600020541515613543565b613594916000528460002090810190615a3f565b84806134ed565b346105ac576020806003193601126105ac576001600160a01b0390816135bf614984565b16600052604e81526040600020916040518093849184825491828152019160005284600020936000905b868383106136135785906135ff82870383614a93565b610e3a604051928284938452830190614e53565b86548216855260019687019689965094019391909101906135e9565b346105ac5760003660031901126105ac57613648614ed7565b605860209081527f260818464ca28c2548f7f7908b7066d3bdcc3cec21aa40294eeaa5ccd982d67b5460026000527f1b9139ff5124b5b4a743210edeeb14bd27969053e8d6191f10831899cdd1b14a546106bd916136be916136a991614fe1565b60036000526058845260406000205490614fe1565b60046000526058835260406000205490614fe1565b346105ac5760003660031901126105ac57610e3a610edd614c7a565b346105ac5760403660031901126105ac57613708614e33565b602490813590613716614ed7565b81156139335760ff8116600181036137955750603b5482111561376557600080516020615e32833981519152925081603a556040805160ff9092168252602082019290925290819081016123b7565b60405162461bcd60e51b815260206004820152600981850152684b696e673c44756b6560b81b6044820152606490fd5b6002810361380a5750603a548210806137ff575b156137c857600080516020615e32833981519152925081603b5561239e565b60405162461bcd60e51b8152602060048201526010818501526f4b6e696768743c44756b653c4b696e6760801b6044820152606490fd5b50603c5482116137a9565b600381036138825750603b54821080613877575b1561383d57600080516020615e32833981519152925081603c5561239e565b60405162461bcd60e51b81526020600482015260138185015272536f6c646965723c4b6e696768743c44756b6560681b6044820152606490fd5b50603d54821161381e565b600481036138e45750603c548210156138af57600080516020615e32833981519152925081603d5561239e565b60405162461bcd60e51b815260206004820152600e818501526d14dbdb191a595c8f12db9a59da1d60921b6044820152606490fd5b60050361390557600080516020615e3283398151915292508160465561239e565b60405162461bcd60e51b81526020600482015260078185015266125b9d985b1a5960ca1b6044820152606490fd5b60648360046040519162461bcd60e51b8352602082840152820152630203e20360e41b6044820152fd5b346105ac5760003660031901126105ac576020600e54604051908152f35b346105ac5760403660031901126105ac57613994614984565b60ff61399e614e43565b6139a6614ed7565b166005811015610bc05761001b9160018060a01b031660005260566020526040600020615a27565b346105ac5760003660031901126105ac576020603354604051908152f35b346105ac576020806003193601126105ac57613a2890613a12613a0d614984565b61568e565b9091604051938493604085526040850190614e53565b8381038285015281808451928381520193019160005b828110613a4d57505050500390f35b835185528695509381019392810192600101613a3e565b346105ac5760403660031901126105ac57613a7d614e33565b60ff60243591613a8b614ed7565b16613a996003821115615df6565b80613aa45750604155005b60018103613ab25750604055005b60028103613ac05750603f55005b600314613ac957005b603e55005b346105ac57613adc36614ab4565b613ae4614ed7565b80516001600160401b03811161108657613aff604754614b9e565b601f8111613baa575b50602080601f8311600114613b4657508192600092613b3b575b5050600019600383901b1c191660019190911b17604755005b015190508280613b22565b90601f19831693604760005282600020926000905b868210613b925750508360019510613b79575b505050811b01604755005b015160001960f88460031b161c19169055828080613b6e565b80600185968294968601518155019501930190613b5b565b6047600052613bf3907fc43c1e24e1884c4e28a16bbd9506f60b5ca9f18fc90635e729d3cfe13abcf001601f840160051c8101916020851061107c57601f0160051c0190615a3f565b82613b08565b346105ac5760203660031901126105ac576001600160a01b03613c1a614984565b16600052604f6020526020604060002054604051908152f35b346105ac5760203660031901126105ac5760043560058110156105ac57600052605d6020526020604060002054604051908152f35b346105ac5760003660031901126105ac57602060405160128152f35b346105ac5760203660031901126105ac5760043560058110156105ac57613cac602091614e01565b54604051908152f35b346105ac5760003660031901126105ac576020603c54604051908152f35b346105ac5760203660031901126105ac576020613cf1600435615abe565b60ff60405191168152f35b346105ac5760003660031901126105ac57610e3a610edd614bd8565b346105ac5760603660031901126105ac57613d31614984565b613d3961499a565b6001600160a01b03821660008181526001602090815260408083203384529091529020549260443592916000198510613d78575b506111f19350614f03565b838510613de4578015613dcb573315613db2576111f194849160005260016020526040600020336000526020520360406000205584613d6d565b604051634a1406b160e11b815260006004820152602490fd5b60405163e602df0560e01b815260006004820152602490fd5b604051637dc7a0d960e11b81523360048201526024810186905260448101859052606490fd5b346105ac5760003660031901126105ac576020600c54604051908152f35b346105ac576020806003193601126105ac57613e42614984565b6001600160a01b03166000908152604c825260409020805490613e6482615645565b93613e726040519586614a93565b828552600091825283822090848087015b858510613eea578782600080805b8451831015613ecd576108df613eb9613ec6926040613eb0878a615251565b51015190614fe1565b926060613eb08689615251565b9190613e91565b608091846040519283528201526000604082015260006060820152f35b600191600791604051613efc81614a24565b865481528487015483820152600287015460408201526003870154606082015260048701546080820152600587015460a0820152600687015460ff9081811660c084015260081c161515868201528152019301930192918590613e83565b346105ac5760403660031901126105ac57613f73614984565b6024359060018060a01b03809116600052604e602052604060002080548310156105ac57602092613fa391614b6a565b9190546040519260031b1c168152f35b346105ac5760003660031901126105ac576020602d54604051908152f35b346105ac576020806003193601126105ac57613feb614984565b613ff3614ed7565b6001600160a01b031680156141145760016000526058825261405561404061402b604060002054600260005260406000205490614fe1565b60036000526058855260406000205490614fe1565b60046000526058845260406000205490614fe1565b9081156140d15760008080848194600183526058885282604081205560028352826040812055600383528260408120556004835282604081205582f1156115975760607f16688f6846ae2ae8492621ad0a74efa4b4d87e26ddc1ebc46f78f9461e47fa0a916001600494604051928352820152426040820152a2005b60405162461bcd60e51b815260048101849052601b60248201527a4e6f7468696e6720696e20746f74616c2072616e6b20706f6f6c7360281b6044820152606490fd5b60405162461bcd60e51b8152600481018390526019602482015278496e76616c696420726563697069656e74206164647265737360381b6044820152606490fd5b346105ac5760003660031901126105ac576020600254604051908152f35b346105ac5760003660031901126105ac5761418d336149b0565b5442106145d15761419d33615265565b15614591573360009081526056602052604090205460ff9060019082166141c381614df7565b01818111611f475781166005811015610bc0576141df81614df7565b60048111614554576141f08161545e565b600091336000526020926051845260406000205480614450575b505060008361425161421b8461545e565b60018060a01b036008541690604051948580948193636902622f60e11b83523360048401526040602484015260448301906149e4565b03925af1908115611597576000916143fd575b50907fb299afdc9213cfc8e82868e4cbfde5a7c4c672dde518cff4555099090e4bcf419361435f93923360005260518252604060002055605681526142ad826040600020615a27565b600182036143ab576142c0602c54615058565b602c555b6142cd8261559e565b426142d7336149ca565b553360009081526056602052604090205460049088166142f681614df7565b1061436e5750336000908152605760205260409020805460ff1916905561431c336149ca565b54614326336149b0565b555b61433182614df7565b61433a8261544b565b9561434483614df7565b604051961686528501526080604085015260808401906149e4565b914260608201528033930390a2005b33600090815260576020526040902061439c9190805460ff19166001179055614396336149ca565b54614fe1565b6143a5336149b0565b55614328565b600282036143c7576143be602d54615058565b602d555b6142c4565b600382036143e2576143da602e54615058565b602e556142c4565b600482036143c2576143f5602f54615058565b602f556142c4565b929190508383813d8311614449575b6144168183614a93565b810103126105ac5791519091907fb299afdc9213cfc8e82868e4cbfde5a7c4c672dde518cff4555099090e4bcf41614264565b503d61440c565b6008546001600160a01b031690813b156105ac57600091602483926040519485938492630852cd8d60e31b845260048401525af1801561159757614539575b503381526056845284604082205416600581101561452557600181036144d257506144bb602c5461510c565b602c555b338152605184526040812055848061420a565b600281036144ef57506144e6602d5461510c565b602d555b6144bf565b6003810361450b5750614503602e5461510c565b602e556144bf565b6004036144ea5761451d602f5461510c565b602f556144bf565b634e487b7160e01b82526021600452602482fd5b90506001600160401b0381116110865760405260008561448f565b60405162461bcd60e51b81526020600482015260156024820152744e6f206e65772072616e6b20617661696c61626c6560581b6044820152606490fd5b60405162461bcd60e51b815260206004820152601860248201527704e6f7420656c696769626c6520666f722072616e6b2075760441b6044820152606490fd5b60405162461bcd60e51b815260206004820152600f60248201526e4344207374696c6c2061637469766560881b6044820152606490fd5b346105ac5760003660031901126105ac576020604354604051908152f35b346105ac5760003660031901126105ac576020600a54604051908152f35b346105ac5760003660031901126105ac576020603f54604051908152f35b346105ac5761467036614ab4565b614678614ed7565b80516001600160401b03811161108657614693604954614b9e565b601f811161473e575b50602080601f83116001146146da575081926000926146cf575b5050600019600383901b1c191660019190911b17604955005b0151905082806146b6565b90601f19831693604960005282600020926000905b868210614726575050836001951061470d575b505050811b01604955005b015160001960f88460031b161c19169055828080614702565b806001859682949686015181550195019301906146ef565b6049600052614787907f37e472f504e93744df80d87316862f9a8fd41a7bc266c723bf77df7866d75f55601f840160051c8101916020851061107c57601f0160051c0190615a3f565b8261469c565b346105ac5760203660031901126105ac5760206106bd6147ab614984565b615c01565b346105ac5760403660031901126105ac576147c9614984565b602435903315613dcb576001600160a01b0316908115613db257336000526001602052604060002082600052602052806040600020556040519081527f8c5be1e5ebec7d5bd14f71427d1e84f3dd0314c0f7b2291e5b200ac8c7c3b92560203392a3602060405160018152f35b346105ac5760003660031901126105ac5760405160035460008261485983614b9e565b9182825260209360019085828216918260001461140e57505060011461488657506113ba92500383614a93565b849150600360005281600020906000915b8583106148ae5750506113ba9350820101856113ad565b80548389018501528794508693909201918101614897565b346105ac5760003660031901126105ac576020603854604051908152f35b346105ac5760403660031901126105ac57602435600435614903614ed7565b606461490f8383614fe1565b0361491c57600f55601055005b60405162461bcd60e51b815260206004820152600a602482015269746f74616c3d3130302560b01b6044820152606490fd5b346105ac5760203660031901126105ac576020906001600160a01b03614972614984565b16600052605b82526040600020548152f35b600435906001600160a01b03821682036105ac57565b602435906001600160a01b03821682036105ac57565b6001600160a01b03166000908152605b6020526040902090565b6001600160a01b03166000908152605e6020526040902090565b919082519283825260005b848110614a10575050826000602080949584010152601f8019910116010190565b6020818301810151848301820152016149ef565b61010081019081106001600160401b0382111761108657604052565b606081019081106001600160401b0382111761108657604052565b61014081019081106001600160401b0382111761108657604052565b61018081019081106001600160401b0382111761108657604052565b90601f801991011681019081106001600160401b0382111761108657604052565b60206003198201126105ac576001600160401b036004358181116105ac57826023820112156105ac5780600401359182116110865760405192614b01601f8401601f191660200185614a93565b828452602483830101116105ac5781600092602460209301838601378301015290565b604b54811015614b3f57604b60005260206000200190600090565b634e487b7160e01b600052603260045260246000fd5b805415614b3f57600052602060002090600090565b8054821015614b3f5760005260206000200190600090565b9094939260609260808301968352602083015260408201520152565b90600182811c92168015614bce575b6020831014614bb857565b634e487b7160e01b600052602260045260246000fd5b91607f1691614bad565b6040519060008260485491614bec83614b9e565b808352602093600190818116908115614c5a5750600114614c18575b5050614c1692500383614a93565b565b90939150604860005281600020936000915b818310614c42575050614c1693508201013880614c08565b85548884018501529485019487945091830191614c2a565b915050614c1694925060ff191682840152151560051b8201013880614c08565b6040519060008260495491614c8e83614b9e565b808352602093600190818116908115614c5a5750600114614cb7575050614c1692500383614a93565b90939150604960005281600020936000915b818310614ce1575050614c1693508201013880614c08565b85548884018501529485019487945091830191614cc9565b6040519060008260475491614d0d83614b9e565b808352602093600190818116908115614c5a5750600114614d36575050614c1692500383614a93565b90939150604760005281600020936000915b818310614d60575050614c1693508201013880614c08565b85548884018501529485019487945091830191614d48565b60405190600082604a5491614d8c83614b9e565b808352602093600190818116908115614c5a5750600114614db5575050614c1692500383614a93565b90939150604a60005281600020936000915b818310614ddf575050614c1693508201013880614c08565b85548884018501529485019487945091830191614dc7565b60051115610bc057565b6005811015610bc0576000526058602052604060002090565b6005811015610bc0576000526059602052604060002090565b6004359060ff821682036105ac57565b6024359060ff821682036105ac57565b90815180825260208080930193019160005b828110614e73575050505090565b83516001600160a01b031685529381019392810192600101614e65565b906005821015610bc05752565b8054821015614b3f576000526007602060002091020190600090565b60809060031901126105ac5760043590602435906044359060643590565b6005546001600160a01b03163303614eeb57565b60405163118cdaa760e01b8152336004820152602490fd5b916001600160a01b03808416928315614fc85716928315614faf5760009083825281602052604082205490838210614f7d575091604082827fddf252ad1be2c89b69c2b068fc378daa952ba7f163c4a11628f55a4df523b3ef958760209652828652038282205586815220818154019055604051908152a3565b60405163391434e360e21b81526001600160a01b03919091166004820152602481019190915260448101839052606490fd5b60405163ec442f0560e01b815260006004820152602490fd5b604051634b637e8f60e11b815260006004820152602490fd5b91908201809211611f4757565b8054600160401b8110156110865761500b91600182018155614b6a565b60018060a09493941b038084549260031b9316831b921b1916179055565b81810292918115918404141715611f4757565b600019810191908211611f4757565b91908203918211611f4757565b6000198114611f475760010190565b600260065414615078576002600655565b604051633ee5aeb560e01b8152600490fd5b1561509157565b60405162461bcd60e51b815260206004820152601260248201527124b739bab33334b1b4b2b73a103a37b5b2b760711b6044820152606490fd5b156150d257565b60405162461bcd60e51b8152602060048201526012602482015271496e73756666696369656e74204d4154494360701b6044820152606490fd5b8015611f47576000190190565b91909160018060a01b031660008181526020604c8152604092600661514087868620614e9d565b5001805461ff001916905580835260608252838320868452825283832054818452605f83528484205460001997919088810190811161522c5761518c90848752605f8652878720614b6a565b90549060031b1c838652605f85526151aa81611a79848a8a20614b6a565b83865260608552868620908652845285852055818452605f8352848420968754978815615218578160529697989901916151e48383614b6a565b909182549160031b1b1916905555818552606083528585209085528252838581205583525220615214815461510c565b9055565b634e487b7160e01b86526031600452602486fd5b634e487b7160e01b86526011600452602486fd5b60ff1660ff8114611f475760010190565b8051821015614b3f5760209160051b010190565b6001600160a01b03908116600081815260566020908152604082205460ff169290919060058410156145255760048414615443578194929452604e845260408120604051948581835491828152019284528184209184905b82821061542a5750505050846152d4910385614a93565b8091819082918395849560465495603a5490603b5493603c5496603d549a5b8d5181101561541657615314600a8f61530d848692615251565b51166154cc565b8b87101561539c5780868e9210156153875788811015615372578a81101561535d57101561534a5761534590615058565b6152f3565b9b61535761534591615058565b9c615058565b50509861536c61534591615058565b99615058565b50509661538161534591615058565b97615058565b50509461539661534591615058565b95615058565b505050999798509950509050859192505b106153e5575050505060045b60058110156153d15711156153ce5750600190565b90565b634e487b7160e01b83526021600452602483fd5b83116153f55750505060036153b9565b821161540457505060026153b9565b106154105760016153b9565b816153b9565b5050999798509950509050859192506153ad565b83548716855293840193600193840193909101906152bd565b509250505090565b60ff6000199116019060ff8211611f4757565b6005811015610bc057600181146154c357600281146154ba57600381146154b1576004146154a957604051602081018181106001600160401b03821117611086576040526000815290565b6153ce614d78565b506153ce614c7a565b506153ce614bd8565b506153ce614cf9565b91906154d783615c01565b92811561559a5760018060a01b0390816000911681526020604e815260408220926040519384859284835492838152019286528486209486915b83831061557e575050505061552892500383614a93565b935b81518510156155785761555f6155506155438785615251565b516001600160a01b031690565b6155598561503c565b906154cc565b61556c9061557292614fe1565b94615058565b9361552a565b93505050565b8654811685526001968701968996509482019490920191615511565b5050565b6005811015610bc05780156155dd57600181146155d657600281146155cf576003146155c957600090565b603e5490565b50603f5490565b5060405490565b5060415490565b6001600160a01b031660009081526056602052604090205460ff166005811015610bc057801561563e576001811461563757600281146156305760031461562a57600090565b60425490565b5060435490565b5060445490565b5060455490565b6001600160401b0381116110865760051b60200190565b9061566682615645565b6156736040519182614a93565b8281528092615684601f1991615645565b0190602036910137565b60018060a01b0380911690600090828252602090604e8252604090818420948251808786829954938481520190885286882092885b888282106158ce575050506156da92500387614a93565b6156e4865161565c565b966156ef875161565c565b918652604e85528386209184518084888296549384815201908a52888a20928a5b8a8282106158b65750505061572792500384614a93565b8251986157338a615645565b9961574087519b8c614a93565b808b5261574f601f1991615645565b0187895b8a8d8483106158905750925050505b84518110156157ef5780886157d7828e8b8e8c6157826157e2998e615251565b5116956157bd6157a161579660098a6158e6565b9190612c858b615c01565b8985526052845285852054909490156157e75750600190614fe1565b9251966157c988614a40565b87528601528c850152615251565b52612cdd818d615251565b615762565b60ff90612ca8565b509398945095969150865b8251881015615885578861580e8985615251565b5116938461581c8a83615251565b52815b865181101561587657858b615834838a615251565b5151161461584a5761584590615058565b61581f565b61586d9295506158608891889b9396959b615251565b510151611c13828a615251565b969091926157fa565b5092919761586d919450615058565b509495505094505050565b8284918c519361589f85614a40565b80855280848601528d850152010152018890615753565b85548a16845260019586019589955093019201615710565b8554881684526001958601958c9550930192016156c3565b60009291839160ff821691838315615a1d576001600160a01b039283168152604e60209081526040808320905181548082529184528284209096958784019391929185915b838310615a0457505050505084615943910385614a93565b9260019384809411945b61595b575b50505050509190565b90919293969482518210156159fd579082916159b2615980615543848c999897615251565b916159ac61598d84615c01565b6001600160a01b03851660009081526052602052604090205492614fe1565b98614fe1565b986159c8575b506159c290615058565b8361594d565b6159df906159d9859a98939a61544b565b906158e6565b6159c2926159f6926159f091614fe1565b97614fe1565b97906159b8565b9496615952565b845481168652948101946001948501949092019161592b565b9550505050508190565b906005811015610bc05760ff80198354169116179055565b818110615a4a575050565b60008155600101615a3f565b615a676064611dc8600f5484615029565b60018060a01b036000808080868560075416828215615ab5575bf1156115975781615aa891615a9b615ab095600b5461504b565b600b556007541630614f03565b600a5461504b565b600a55565b506108fc615a81565b601354811090811580615b1f575b15615ad8575050600390565b60125481109182159081615b17575b5015615af4575050600290565b60115411159081615b0f575b50615b0a57600090565b600190565b905038615b00565b905038615ae7565b50601454811115615acc565b60ff1660018114615b575760028114615b5057600314615b4a57600090565b60175490565b5060165490565b5060155490565b90604080519061016082018281106001600160401b03821117611086578152600a93848352602092610140368583013760018060a01b039384600093168352604d918282528585852054169084915b60ff83168a811080615bf6575b15615be957615bca899184615251565b91168091528552838352615be387878720541692615240565b91615bad565b5090985050505050505050565b508882161515615bba565b90600090815b6001600160a01b0384166000908152604c60205260409020805460ff85161015615c4a57615c4491615c3c85611c1993614e9d565b505490614fe1565b91615c07565b5092509050565b6001600160a01b03166000818152604c602081815260408084208054929591949215615d0957615c849095949395614b55565b509160019586809401549584975b615ca2575b505050505050905090565b8383528181528583208054891015615d035785615cc08a8a93614e9d565b50015410615cdd575b615cd585969798615058565b979695615c92565b84959650838352818152615cd585615cf78a8a8720614e9d565b50015497965050615cc9565b50615c97565b50509250505090565b90600a811015614b3f5760051b0190565b90600c811015614b3f5760051b0190565b6001600160a01b031660009081526056602052604081205460ff16906064906005831015615de25760018314615dbb575b509060028114615da7575b60038114615d8f575b600414615d835790565b6034546153ce91614fe1565b90615d9f60049160335490614fe1565b919050615d79565b90615db59060325490614fe1565b90615d70565b6031548201809211615dce575038615d65565b634e487b7160e01b81526011600452602490fd5b634e487b7160e01b81526021600452602490fd5b15615dfd57565b60405162461bcd60e51b815260206004820152600c60248201526b496e76616c69642072616e6b60a01b6044820152606490fdfe80cea518455a986085f4564d8b3cee03f8e3ce2b7ce1bf395799c809067eb8d8a2646970667358221220ad55c04e58ce5d36bb688feb43a7e96de12fb97b4e6d6180ca81e1eaa9230a0e64736f6c63430008150033",
  "linkReferences": {},
  "deployedLinkReferences": {}
}